{
  "contractName": "Manufacturer",
  "abi": [
    {
      "inputs": [],
      "payable": false,
      "stateMutability": "nonpayable",
      "type": "constructor"
    },
    {
      "anonymous": false,
      "inputs": [
        {
          "indexed": true,
          "internalType": "address",
          "name": "_userAddress",
          "type": "address"
        },
        {
          "indexed": false,
          "internalType": "uint256",
          "name": "index",
          "type": "uint256"
        }
      ],
      "name": "LogNewUser",
      "type": "event"
    },
    {
      "anonymous": false,
      "inputs": [
        {
          "indexed": true,
          "internalType": "address",
          "name": "_userAddress",
          "type": "address"
        }
      ],
      "name": "ManufacturerAdded",
      "type": "event"
    },
    {
      "anonymous": false,
      "inputs": [
        {
          "indexed": true,
          "internalType": "address",
          "name": "_userAddress",
          "type": "address"
        }
      ],
      "name": "ManufacturerRemoved",
      "type": "event"
    },
    {
      "constant": true,
      "inputs": [
        {
          "internalType": "address",
          "name": "account",
          "type": "address"
        }
      ],
      "name": "isDistributor",
      "outputs": [
        {
          "internalType": "bool",
          "name": "",
          "type": "bool"
        }
      ],
      "payable": false,
      "stateMutability": "view",
      "type": "function"
    },
    {
      "constant": false,
      "inputs": [
        {
          "internalType": "address",
          "name": "account",
          "type": "address"
        }
      ],
      "name": "addDistributor",
      "outputs": [],
      "payable": false,
      "stateMutability": "nonpayable",
      "type": "function"
    },
    {
      "constant": false,
      "inputs": [],
      "name": "renounceDistributor",
      "outputs": [],
      "payable": false,
      "stateMutability": "nonpayable",
      "type": "function"
    }
  ],
  "bytecode": "0x608060405234801561001057600080fd5b50336000806101000a81548173ffffffffffffffffffffffffffffffffffffffff021916908373ffffffffffffffffffffffffffffffffffffffff1602179055506100603361006560201b60201c565b610207565b61007d8160026100c360201b6102d31790919060201c565b8073ffffffffffffffffffffffffffffffffffffffff167f561138658ca49a8540dc70dcfe64c9026c1c5b9344642242dd6562970f9c127860405160405180910390a250565b600073ffffffffffffffffffffffffffffffffffffffff168173ffffffffffffffffffffffffffffffffffffffff1614156100fd57600080fd5b61010d828261017560201b60201c565b1561011757600080fd5b60018260000160008373ffffffffffffffffffffffffffffffffffffffff1673ffffffffffffffffffffffffffffffffffffffff16815260200190815260200160002060006101000a81548160ff0219169083151502179055505050565b60008073ffffffffffffffffffffffffffffffffffffffff168273ffffffffffffffffffffffffffffffffffffffff1614156101b057600080fd5b8260000160008373ffffffffffffffffffffffffffffffffffffffff1673ffffffffffffffffffffffffffffffffffffffff16815260200190815260200160002060009054906101000a900460ff16905092915050565b61047f806102166000396000f3fe608060405234801561001057600080fd5b50600436106100415760003560e01c8063644241db146100465780637250e224146100505780638f0c86fa1461006c575b600080fd5b61004e61009c565b005b61006a60048036036100659190810190610394565b6100a7565b005b61008660048036036100819190810190610394565b6100c5565b60405161009391906103cc565b60405180910390f35b6100a5336100e2565b565b6100b0336100c5565b6100b957600080fd5b6100c28161013c565b50565b60006100db82600261019690919063ffffffff16565b9050919050565b6100f681600261022890919063ffffffff16565b8073ffffffffffffffffffffffffffffffffffffffff167f2fed5abf6a80d6dfe30b4895481b2fc5d7dce5f8f7b931832f4a2947d5040c7f60405160405180910390a250565b6101508160026102d390919063ffffffff16565b8073ffffffffffffffffffffffffffffffffffffffff167f561138658ca49a8540dc70dcfe64c9026c1c5b9344642242dd6562970f9c127860405160405180910390a250565b60008073ffffffffffffffffffffffffffffffffffffffff168273ffffffffffffffffffffffffffffffffffffffff1614156101d157600080fd5b8260000160008373ffffffffffffffffffffffffffffffffffffffff1673ffffffffffffffffffffffffffffffffffffffff16815260200190815260200160002060009054906101000a900460ff16905092915050565b600073ffffffffffffffffffffffffffffffffffffffff168173ffffffffffffffffffffffffffffffffffffffff16141561026257600080fd5b61026c8282610196565b61027557600080fd5b60008260000160008373ffffffffffffffffffffffffffffffffffffffff1673ffffffffffffffffffffffffffffffffffffffff16815260200190815260200160002060006101000a81548160ff0219169083151502179055505050565b600073ffffffffffffffffffffffffffffffffffffffff168173ffffffffffffffffffffffffffffffffffffffff16141561030d57600080fd5b6103178282610196565b1561032157600080fd5b60018260000160008373ffffffffffffffffffffffffffffffffffffffff1673ffffffffffffffffffffffffffffffffffffffff16815260200190815260200160002060006101000a81548160ff0219169083151502179055505050565b60008135905061038e81610425565b92915050565b6000602082840312156103a657600080fd5b60006103b48482850161037f565b91505092915050565b6103c6816103f9565b82525050565b60006020820190506103e160008301846103bd565b92915050565b60006103f282610405565b9050919050565b60008115159050919050565b600073ffffffffffffffffffffffffffffffffffffffff82169050919050565b61042e816103e7565b811461043957600080fd5b5056fea365627a7a723158200d0e94e75d90cea4588ba797bfb3b2ee2d25d49809b9bbdece91f4bc82a410da6c6578706572696d656e74616cf564736f6c63430005100040",
  "source": " // SPDX-License-Identifier: GPL-3.0\r\n pragma experimental ABIEncoderV2;\r\npragma solidity >=0.4.20;\r\n\r\n //import \"../TexOwner.sol\";\r\n \r\n \r\n contract AdminUser{\r\n     \r\n         //add fabric treatementt denim treatment like stone washing, sand washing, enzyme wash, acid wash, sandblasting, river wash, whiskers and vintage look.\r\n        address public lastAccess;\r\n        address public owner;\r\n        uint public creationTime;\r\n        bytes32 a;\r\n        //mapping (uint=> items) itemlist;\r\n       \r\n       \r\n        mapping(address => User) private usersdetail;\r\n        address[] private userindex;\r\n        uint count = userindex.length;\r\n        mapping(address => uint8) authorizedCaller;\r\n\r\n        \r\n        \r\n        constructor() public {\r\n            owner = msg.sender;\r\n              creationTime = block.timestamp;\r\n            authorizedCaller[msg.sender] = 1;\r\n            emit AuthorizedCaller(msg.sender);\r\n         }\r\n \r\n         struct User{\r\n            string us_name;\r\n            string password;\r\n            address Createdby;\r\n            uint creationTime;\r\n            uint index;\r\n            string email;\r\n            string location;\r\n            uint role;\r\n    \r\n         }\r\n         struct Userroles{\r\n             uint us_roles;\r\n         }\r\n         uint256 token;\r\n         mapping(address=>uint) public us_role;\r\n         mapping(bytes32 => User) idmap;\r\n         \r\n        \r\n\r\n        event OwnershipRenounced(address indexed previousOwner);\r\n        event OwnershipTransferred(address indexed previousOwner, address indexed newOwner);\r\n        event AuthorizedCaller(address caller);\r\n        event DeAuthorizedCaller(address caller);\r\n        event LogNewUser   (address indexed _userAddress, uint index,string  name, string password,string email,uint userrole,bytes32 _hash);\r\n        event LogUpdateUser(address indexed _userAddress, uint index,  string email, string location, string password);\r\n        event ProduceByFarmer(uint upc);         //1\r\n\r\n        \r\n        modifier onlyAuthCaller(){\r\n            lastAccess = msg.sender;\r\n            require(authorizedCaller[msg.sender] == 1);\r\n            _;\r\n        }\r\n        \r\n        modifier Onlyowner(){\r\n            require( msg.sender==owner);\r\n            _;\r\n        }\r\n        function transferOwnership( address newOwner) public Onlyowner{\r\n            require(newOwner != address(0));\r\n            emit OwnershipTransferred(owner, newOwner);\r\n            owner = newOwner;\r\n        }\r\n        \r\n        function renounceOwnership() public {\r\n            emit OwnershipRenounced(owner);\r\n            owner = address(0);\r\n        }\r\n        \r\n         function isOwner() public view returns (bool) {\r\n            return msg.sender == owner;\r\n        }\r\n         function isUser(address _userAddress)public view  returns(bool isIndeed) {\r\n            if(userindex.length == 0) return false;\r\n            return (userindex[usersdetail[_userAddress].index] == _userAddress);\r\n      }\r\n         \r\n         function authorizeCaller(address _caller) public Onlyowner returns(bool) \r\n        {\r\n            authorizedCaller[_caller] = 1;\r\n            emit AuthorizedCaller(_caller);\r\n            return true;\r\n        }\r\n        \r\n        /* deauthorize caller */\r\n        function deAuthorizeCaller(address _caller) public Onlyowner returns(bool) \r\n        {\r\n            authorizedCaller[_caller] = 0;\r\n            emit DeAuthorizedCaller(_caller);\r\n            return true;\r\n        }\r\n        \r\n     \r\n        function setUser(address _userAddress, string memory us_name, string memory password, string memory  email, string memory location,uint role) public Onlyowner returns(uint index) {\r\n            //require(authorizedCaller[msg.sender]==1);\r\n            //authorizedCaller[msg.sender] = 0;\r\n            //require(authorizedCaller[msg.sender]==0);\r\n            \r\n            require(isUser(_userAddress)==false); \r\n            \r\n            usersdetail[_userAddress].Createdby = msg.sender;\r\n            usersdetail[_userAddress].creationTime= block.timestamp;\r\n            usersdetail[_userAddress].us_name=us_name;\r\n            usersdetail[_userAddress].password=password;\r\n            usersdetail[_userAddress].email=email;\r\n            usersdetail[_userAddress].location=location;\r\n            usersdetail[_userAddress].role=role;\r\n            us_role[_userAddress]= role;\r\n            \r\n            userindex.push(_userAddress);\r\n            usersdetail[_userAddress].index = userindex.length-1;\r\n            a= sha256(abi.encodePacked(_userAddress,us_name,location,password,email,role));\r\n            idmap[a]=usersdetail[_userAddress];\r\n            \r\n           emit  LogNewUser(\r\n            _userAddress, \r\n            usersdetail[_userAddress].index, \r\n            us_name,\r\n            password,\r\n            email, \r\n            us_role[_userAddress],\r\n            a\r\n            );\r\n            \r\n             return (userindex.length-1);\r\n        }\r\n         function getUserCount() public view returns(uint index) {\r\n            return userindex.length;\r\n            }\r\n            \r\n            \r\n        //  function getUser(address _userAddress) public  returns ( bytes32  a,\r\n        //                                                             string memory us_name,\r\n        //                                                               string memory password,\r\n        //                                                               string memory  email,\r\n        //                                                               address _Createdby,\r\n        //                                                               uint  role)\r\n        //     {\r\n        //         require(isUser(_userAddress)==true);\r\n                \r\n        //         User memory details = usersdetail[_userAddress];\r\n                \r\n        //         a= sha256(abi.encodePacked(details.us_name, details.password,details.email, details.Createdby,details.creationTime));\r\n                 \r\n        //         idmap[a]=usersdetail[_userAddress];\r\n        //         return (a,details.us_name, details.password,details.email,details.Createdby,us_role[_userAddress]);\r\n        //     }   \r\n            \r\n        function getdata(bytes32 transactionhash) public view returns(User memory used){\r\n             return (idmap[transactionhash]);\r\n            \r\n        }\r\n        function updateUser(address _userAddress, string memory email, string memory location, string memory password) public returns(bool success) {\r\n            \r\n            require(isUser(_userAddress)==true) ; \r\n            usersdetail[_userAddress].email = email;\r\n            usersdetail[_userAddress].location = location;\r\n            usersdetail[_userAddress].password = password;\r\n            emit LogUpdateUser(\r\n            _userAddress, \r\n            usersdetail[_userAddress].index,\r\n            email,\r\n            location,\r\n            password\r\n            );\r\n            return true;\r\n        }   \r\n \r\n     \r\n }\r\n    library Roles {\r\n      struct Role {\r\n        mapping (address => bool) bearer;\r\n      }\r\n    \r\n      /**\r\n       * @dev give an account access to this role\r\n       */\r\n      function add(Role storage role, address _userAddress) internal {\r\n        require(_userAddress != address(0));\r\n        require(!has(role, _userAddress));\r\n    \r\n        role.bearer[_userAddress] = true;\r\n      }\r\n    \r\n      /**\r\n       * @dev remove an account's access to this role\r\n       */\r\n      function remove(Role storage role, address _userAddress) internal {\r\n        require(_userAddress != address(0));\r\n        require(has(role, _userAddress));\r\n    \r\n        role.bearer[_userAddress] = false;\r\n      }\r\n    \r\n      /**\r\n       * @dev check if an account has this role\r\n       * @return bool\r\n       */\r\n      function has(Role storage role, address _userAddress)\r\n        internal\r\n        view\r\n        returns (bool)\r\n      {\r\n        require(_userAddress != address(0));\r\n        return role.bearer[_userAddress];\r\n      }\r\n    }\r\n     \r\n     \r\n contract Supplier{\r\n     \r\n      using Roles for Roles.Role;\r\n    uint public creationTime;\r\n      // Define 2 events, one for Adding, and other for Removing\r\n      event SupplierAdded(address indexed account);\r\n      event SupplierRemoved(address indexed account);\r\n    \r\n      // Define a struct 'farmers' by inheriting from 'Roles' library, struct Role\r\n      Roles.Role private suppliers;\r\n    \r\n      // In the constructor make the address that deploys this contract the 1st farmer\r\n      constructor() public {\r\n        _addSupplier(msg.sender);\r\n        creationTime = block.timestamp;\r\n    \r\n      }\r\n    \r\n      // Define a modifier that checks to see if msg.sender has the appropriate role\r\n      modifier onlySupplier() {\r\n        require(isSupplier(msg.sender));\r\n        _;\r\n      }\r\n    \r\n      // Define a function 'isFarmer' to check this role\r\n      function isSupplier(address _userAddress) public view returns (bool) {\r\n        return suppliers.has(_userAddress);\r\n      }\r\n    \r\n      // Define a function 'addFarmer' that adds this role\r\n      function addSupplier(address _userAddress) public onlySupplier {\r\n        _addSupplier(_userAddress);\r\n      }\r\n    \r\n      // Define a function 'renounceFarmer' to renounce this role\r\n      function renounceSupplier() public {\r\n        _removeSupplier(msg.sender);\r\n      }\r\n    \r\n      // Define an internal function '_addFarmer' to add this role, called by 'addFarmer'\r\n      function _addSupplier(address _userAddress) internal {\r\n        suppliers.add(_userAddress);\r\n        emit SupplierAdded(_userAddress);\r\n      }\r\n    \r\n      // Define an internal function '_removeFarmer' to remove this role, called by 'removeFarmer'\r\n      function _removeSupplier(address _userAddress) internal {\r\n        suppliers.remove(_userAddress);\r\n        emit SupplierRemoved(_userAddress);\r\n      }\r\n\r\n }\r\n         contract Manufacturer {\r\n             \r\n             \r\n          using Roles for Roles.Role;\r\n          \r\n          // Define 2 events, one for Adding, and other for Removing\r\n          event ManufacturerAdded(address indexed _userAddress);\r\n          event ManufacturerRemoved(address indexed _userAddress);\r\n          address manuowner;\r\n          bytes32 hash;\r\n         \r\n          \r\n          // Define a struct 'distributors' by inheriting from 'Roles' library, struct Role\r\n          Roles.Role private distributors;\r\n        event LogNewUser   (address indexed _userAddress, uint index);\r\n\r\n          address[] private userindex;\r\n    \r\n          // In the constructor make the address that deploys this contract the 1st distributor\r\n          constructor() public {\r\n              manuowner =msg.sender;\r\n            _addDistributor(msg.sender);\r\n          }\r\n        modifier onlyManufacturer(){\r\n            require(msg.sender == manuowner);\r\n            _;\r\n        }\r\n          // Define a modifier that checks to see if msg.sender has the appropriate role\r\n          modifier onlyDistributor() {\r\n            require(isDistributor(msg.sender));\r\n            _;\r\n          }\r\n        \r\n          // Define a function 'isDistributor' to check this role\r\n          function isDistributor(address account) public view returns (bool) {\r\n              \r\n            return distributors.has(account);\r\n          }\r\n          \r\n    //       function isMerch(address _userAddress)public view  returns(bool isIndeed) {\r\n    //         if(userindex.length == 0) return false;\r\n    //         return (userindex[merch[_userAddress].index] == _userAddress);\r\n    //   }\r\n    //   function isEmp(address _userAddress)public view  returns(bool isIndeed) {\r\n    //         if(userindex.length == 0) return false;\r\n    //         return (userindex[emp[_userAddress].index] == _userAddress);\r\n    //   }\r\n      \r\n    //     function addMerchandizer(address _userAddress)public onlyManufacturer {\r\n           \r\n    //       require(isMerch(_userAddress)==false);\r\n           \r\n    //         merch[_userAddress].Createdby=msg.sender;\r\n           \r\n    //         merch[_userAddress].merch_id=merch_id;\r\n    //         merch_id =merch_id+1;\r\n    //         map[merch_id]=_userAddress;\r\n    //         userindex.push(_userAddress);\r\n    //                 emit LogNewUser   (_userAddress,merch_id );\r\n\r\n    //         merch[_userAddress].index = userindex.length-1;\r\n           \r\n    //     }\r\n    //      function getMerch(uint id) public view returns(address ){\r\n    //          return (map[id]);\r\n            \r\n    //     }\r\n        \r\n    //     function addEmployee(address _userAddress )public onlyManufacturer {\r\n           \r\n    //       require(isEmp(_userAddress)==false);\r\n    //         hash =  sha256(abi.encodePacked(_userAddress,emp_id));\r\n    //         emp[_userAddress].Createdby=msg.sender;\r\n            \r\n    //         emp[_userAddress].emp_id=emp_id;\r\n    //         empmap[hash]=emp[_userAddress];\r\n    //         emp_id =emp_id+1;\r\n    //          emit LogNewUser   (_userAddress,emp_id);\r\n    //         userindex.push(_userAddress);\r\n    //         emp[_userAddress].index = userindex.length-1;\r\n            \r\n    //     }\r\n        \r\n    // Define a function 'addDistributor' that adds this role\r\n          function addDistributor(address account) public onlyDistributor {\r\n            _addDistributor(account);\r\n          }\r\n        \r\n          // Define a function 'renounceDistributor' to renounce this role\r\n          function renounceDistributor() public {\r\n            _removeDistributor(msg.sender);\r\n          }\r\n        \r\n          // Define an internal function '_addDistributor' to add this role, called by 'addDistributor'\r\n          function _addDistributor(address account) internal {\r\n            distributors.add(account);\r\n            emit ManufacturerAdded(account);\r\n          }\r\n        \r\n          // Define an internal function '_removeDistributor' to remove this role, called by 'removeDistributor'\r\n          function _removeDistributor(address account) internal {\r\n            distributors.remove(account);\r\n            emit ManufacturerRemoved(account);\r\n          }\r\n        }\r\n   contract Brand {\r\n      using Roles for Roles.Role;\r\n      // Define 2 events, one for Adding, and other for Removing\r\n      event ConsumerAdded(address indexed account);\r\n      event ConsumerRemoved(address indexed account);\r\n    \r\n      // Define a struct 'consumers' by inheriting from 'Roles' library, struct Role\r\n      Roles.Role private consumers;\r\n      // In the constructor make the address that deploys this contract the 1st consumer\r\n      constructor() public {\r\n        //_addConstructor(msg.sender);\r\n        _addConsumer(msg.sender);\r\n      }\r\n    \r\n      // Define a modifier that checks to see if msg.sender has the appropriate role\r\n      modifier onlyBrand() {\r\n        require(isBrand(msg.sender));\r\n        _;\r\n      }\r\n    \r\n      // Define a function 'isConsumer' to check this role\r\n      function isBrand(address account) public view returns (bool) {\r\n        return consumers.has(account);\r\n      }\r\n    \r\n      // Define a function 'addConsumer' that adds this role\r\n      function addBrand(address account) public onlyBrand {\r\n        _addConsumer(account);\r\n      }\r\n    \r\n      // Define a function 'renounceConsumer' to renounce this role\r\n      function renounceConsumer(address account) public {\r\n        _removeConsumer(account);\r\n      }\r\n    \r\n      // Define an internal function '_addConsumer' to add this role, called by 'addConsumer'\r\n      function _addConsumer(address account) internal {\r\n        consumers.add(account);\r\n        emit ConsumerAdded(account);\r\n      }\r\n    \r\n      // Define an internal function '_removeConsumer' to remove this role, called by 'removeConsumer'\r\n      function _removeConsumer(address account) internal {\r\n        consumers.remove(account);\r\n        emit ConsumerRemoved(account);\r\n      }\r\n}      \r\n  contract Supplychain is Supplier, Manufacturer, Brand{\r\n           \r\n          // Define a variable called 'upc' for Universal Product Code (UPC),12 digit codes. \r\n        uint  upc;\r\n        uint productupc;\r\n        uint productsku;\r\n        \r\n        // Define a variable called 'sku' for Stock Keeping Unit (SKU),string of alpha and numeric,unique to the companies ,8 digit\r\n        uint  sku;\r\n        uint placeholder; // Block number place holder\r\n        address owner;\r\n        // Define a public mapping 'items' that maps the UPC to an Item.\r\n        mapping (uint => Item) items;\r\n        mapping (uint => Denim) products;\r\n        mapping (uint256 =>Denim[])  public idToProof;\r\n        \r\n         // Define a public mapping 'itemsHistory' that maps the UPC to an array of TxHash,\r\n        // that track its journey through the supply chain -- to be sent from DApp.\r\n        mapping (uint => Txblocks) itemsHistory;\r\n        mapping (address=>address[]) public merhmap;\r\n        mapping(address=>mapping(address=>uint)) public mechsupquantity;\r\n        // Define enum 'State' with the following values:\r\n        enum State\r\n        {\r\n        ProduceBySupplier,         // 0\r\n        ForSaleBySupplier,         // 1\r\n        PurchasedByManufacturer,  // 2\r\n        ShippedBySupplier,         // 3\r\n        ReceivedByManufacturer,   // 4\r\n        ProcessedByManufacturer,  // 5\r\n        PackagedByManufacturer,    // 6\r\n        ForSaleByManufacturer,    // 7\r\n        PurchasedByBrand,         // 8\r\n        ShippedByManufacturer,    // 9\r\n        ReceivedByBrand// 10\r\n        }\r\n       \r\n        struct Item {\r\n            uint    sku;                    // Stock Keeping Unit (SKU)\r\n            uint    upc;                    // Universal Product Code (UPC), generated by the Farmer, goes on the package, can be verified by the Consumer\r\n            uint creationTime;\r\n            address ownerID;                // Metamask-Ethereum address of the current owner as the product moves through 8 stages\r\n            address originsupplierID;         // Metamask-Ethereum address of the Farmer // ADDED PAYABLE\r\n            string  originsupplierName;         // Farmer Name\r\n            string  originsupplierLatitude;     // Farm Latitude\r\n            string  originsupplierLongitude;    // Farm Longitude\r\n            uint    productID;              // Product ID potentially a combination of upc + sku\r\n            uint    productPrice;           // Product Price\r\n            uint quantity;\r\n            string dye;// indigo\r\n            State   itemState;// Product State as represented in the enum above\r\n            string materialtype; \r\n            address merchandizerid;\r\n            address manufacturerID;          // Metamask-Ethereum address of the Distributor\r\n            address brandID;             // Metamask-Ethereum address of the Consumer // ADDED payable\r\n        }\r\n        \r\n        struct Denim {\r\n            string gramenttype;\r\n            string treatements;\r\n            uint productupc;\r\n            address ownerID;\r\n            State productstate;\r\n            uint productsku;\r\n            address brandID;\r\n            uint[] empID;\r\n            uint creationTime;\r\n            address manufacturerID;\r\n            address merchandizerid;\r\n            uint ShipmnetAgent;\r\n            uint[]  machine_id;\r\n            uint[] itemsUPC;\r\n\r\n        }\r\n\r\n       \r\n        struct Txblocks {\r\n            uint FTD; // blockfarmerToDistributor\r\n            uint RTC; // blockRetailerToConsumer\r\n            uint PM;//blockpurchsetoprocess\r\n            uint PPA;//blockprocesstopacakge\r\n          }\r\n          \r\n         State constant defaultState = State.ProduceBySupplier;\r\n        event LogProductDetails(uint[] _upc, uint[] _machineid, uint[] _employeeid);\r\n        event logNewItem   (uint _upc,uint upc, address employee, string  _originsupplierName, string  _originsupplierLatitude, string  _originsupplierLongitude,string  _materialtype, uint _price, string  _dye, uint256 hash );\r\n        event lognewPurchse   (uint _upc,uint time,   address _merch,uint _quantity, address originsupplierID, uint256 FTD);\r\n        event QuantityLesserThanRequired(uint upc);\r\n        event ProduceBySupplier(uint upc);         //1\r\n        event ForSaleBySupplier(uint upc); //2\r\n        event PurchasedByManufacturer(uint upc);  //3\r\n        event ShippedBySupplier(uint upc);         //4\r\n        event ReceivedByManufacturer(uint upc);   //5\r\n        event ProcessedByManufacturer(uint upc);  //6\r\n        event PackagedByManufacturer(uint upc);   //7\r\n        event ForSaleByManufacturer(uint upc);    //8\r\n        event PurchasedByBrand(uint upc);     //13\r\n        event ShippedByManufacturer(uint upc);    //10\r\n        event ReceivedByBrand(uint upc);     //13\r\n        \r\n        modifier forSaleBySupplier(uint _upc) {\r\n        require(items[_upc].itemState == State.ForSaleBySupplier);\r\n        _;\r\n        }\r\n        modifier producedBySupplier(uint _upc) {\r\n        require(items[_upc].itemState == State.ProduceBySupplier);\r\n        _;\r\n        }\r\n        modifier verifyCaller (address _userAddress) {\r\n        require(msg.sender == _userAddress);\r\n        _;\r\n        }\r\n        modifier purchasedByManufacturer(uint _upc) {\r\n        require(items[_upc].itemState == State.PurchasedByManufacturer);\r\n        _;\r\n        }\r\n        \r\n        modifier shippedBySupplier(uint _upc) {\r\n        require(items[_upc].itemState == State.ShippedBySupplier);\r\n        _;\r\n        }\r\n        \r\n        modifier receivedByManufacturer(uint _upc) {\r\n        require(items[_upc].itemState == State.ReceivedByManufacturer);\r\n        _;\r\n        }\r\n        \r\n        modifier processByManufacturer(uint _upc) {\r\n        require(products[_upc].productstate == State.ProcessedByManufacturer);\r\n        _;\r\n        }\r\n        \r\n        modifier packagedByManufacturer(uint _upc) {\r\n        require(products[_upc].productstate == State.PackagedByManufacturer);\r\n        _;\r\n        }\r\n        modifier forSaleByManufacturer(uint _upc) {\r\n        require(products[_upc].productstate  == State.ForSaleByManufacturer);\r\n        _;\r\n  }\r\n\r\n\r\n      modifier shippedByManufacturer(uint _upc) {\r\n        require(products[_upc].productstate  == State.ShippedByManufacturer);\r\n        _;\r\n      }\r\n    \r\n      \r\n      modifier purchasedByBrand(uint _upc) {\r\n        require(products[_upc].productstate  == State.PurchasedByBrand);\r\n        _;\r\n      }\r\n            constructor () public  {\r\n            owner=msg.sender;\r\n            sku = 1;\r\n            upc = 1;\r\n            productupc=1;\r\n            productsku=1;\r\n        }\r\n                   // allows you to convert an address into a payable address\r\n         \r\n        function itemBySupplier(uint _upc, string memory _originsupplierName, string memory _originsupplierLatitude, string memory _originsupplierLongitude,string memory _materialtype, uint _price, string memory _dye) public\r\n        onlySupplier() // check address belongs to farmerRole\r\n        {\r\n        \r\n        address manufacturerID; // Empty distributorID address\r\n        address brandID; // Empty consumerID address\r\n        \r\n        Item memory newProduce; // Create a new struct Item in memory\r\n        newProduce.sku = sku;  // Stock Keeping Unit (SKU)\r\n        newProduce.upc = _upc; // Universal Product Code (UPC), generated by the Farmer, goes on the package, can be verified by the Consumer\r\n        newProduce.ownerID = msg.sender;  // Metamask-Ethereum address of the current owner as the product moves through 8 stages\r\n        newProduce.originsupplierID = msg.sender; // Metamask-Ethereum address of the Farmer\r\n        newProduce.originsupplierName = _originsupplierName;  // Farmer Name\r\n        newProduce.originsupplierLatitude = _originsupplierLatitude; // Farm Latitude\r\n        newProduce.originsupplierLongitude = _originsupplierLongitude;  // Farm Longitude\r\n        newProduce.productID = _upc+sku;  // Product ID\r\n        newProduce.productPrice = _price;  // Product Price\r\n        newProduce.creationTime = block.timestamp;\r\n        newProduce.dye = _dye;\r\n        newProduce.materialtype = _materialtype;\r\n        newProduce.itemState = defaultState; // Product State as represented in the enum above\r\n        \r\n        newProduce.manufacturerID = manufacturerID; // Metamask-Ethereum address of the Distributor\r\n        newProduce.brandID = brandID; // Metamask-Ethereum address of the Consumer // ADDED payable\r\n        \r\n        items[_upc] = newProduce; // Add newProduce to items struct by upc\r\n         Txblocks memory txBlock; // create new txBlock struct\r\n        txBlock.FTD = placeholder; // assign placeholder values\r\n        txBlock.RTC = placeholder;\r\n        itemsHistory[_upc] = txBlock; // add txBlock to itemsHistory mapping by upc\r\n        \r\n           emit logNewItem   ( _upc, 0,address(0),_originsupplierName,   _originsupplierLatitude,  _originsupplierLongitude,  _materialtype, _price,  _dye,0);\r\n        \r\n        // Increment sku\r\n        sku = sku + 1;\r\n        \r\n        // Emit the appropriate event\r\n        emit ProduceBySupplier(_upc);\r\n        \r\n        \r\n        \r\n        }\r\n        \r\n        function sellItemBySupplier(uint _upc, uint _price) public\r\n        onlySupplier() // check msg.sender belongs to farmerRole\r\n        producedBySupplier(_upc) // check items state has been produced\r\n        verifyCaller(items[_upc].ownerID) // check msg.sender is owner\r\n        {\r\n        items[_upc].itemState = State.ForSaleBySupplier;\r\n        items[_upc].productPrice = _price;\r\n        emit ForSaleBySupplier(_upc);\r\n        }\r\n        \r\n        function purchaseItemByManufacturer(uint _upc, address _merchandizerId, uint _quantity) public  \r\n        onlyDistributor() // check msg.sender belongs to distributorRole\r\n        forSaleBySupplier(_upc) // check items state is for ForSaleByFarmer\r\n        {\r\n        // transfer funds from distributor to farmer\r\n        items[_upc].ownerID = msg.sender; // update owner\r\n        items[_upc].manufacturerID = msg.sender; // update distributor\r\n        items[_upc].quantity =_quantity;\r\n        items[_upc].itemState = State.PurchasedByManufacturer; // update state\r\n        \r\n        merhmap[_merchandizerId].push(items[_upc].originsupplierID);\r\n        mechsupquantity[_merchandizerId][items[_upc].originsupplierID]=_quantity;\r\n        itemsHistory[_upc].FTD = block.number; // add block number\r\n        // idToProof[items[_upc].FTD]=\"proof1\";\r\n        emit lognewPurchse   (_upc,block.timestamp, _merchandizerId, _quantity,items[_upc].originsupplierID,itemsHistory[_upc].FTD);\r\n        \r\n        emit PurchasedByManufacturer(_upc);\r\n        \r\n        \r\n        //0xAb8483F64d9C6d1EcF9b849Ae677dD3315835cb2\r\n        //0x4B20993Bc481177ec7E8f571ceCaE8A9e22C02db\r\n        //0x78731D3Ca6b7E34aC0F824c42a7cC18A495cabaB\r\n        //0x617F2E2fD72FD9D5503197092aC168c91465E7f2\r\n        }\r\n        \r\n        function shippedItemBySupplier(uint _upc) public \r\n        onlySupplier() // check msg.sender belongs to FarmerRole\r\n        purchasedByManufacturer(_upc)\r\n        verifyCaller(items[_upc].originsupplierID) // check msg.sender is originFarmID\r\n        {\r\n            // items[_upc].quantity =_quantity;\r\n        items[_upc].itemState = State.ShippedBySupplier; // update state\r\n        emit lognewPurchse(_upc,block.timestamp,address(0),0,address(0),0);\r\n        emit ShippedBySupplier(_upc);\r\n        }\r\n        \r\n        function receivedItemByManufacturer(uint _upc, uint quantity, address _merchandizerId) public\r\n        onlyDistributor() // check msg.sender belongs to DistributorRole\r\n        shippedBySupplier(_upc)\r\n        verifyCaller(items[_upc].ownerID) // check msg.sender is owner\r\n        {\r\n            if(mechsupquantity[_merchandizerId][items[_upc].originsupplierID]< quantity)\r\n            {\r\n                emit QuantityLesserThanRequired(quantity);\r\n                \r\n            }\r\n        items[_upc].itemState = State.ReceivedByManufacturer; // update state\r\n       mechsupquantity[_merchandizerId][items[_upc].originsupplierID]=quantity;\r\n\r\n        emit lognewPurchse(_upc,block.timestamp,address(0),0,address(0),0);\r\n        emit ReceivedByManufacturer(_upc);\r\n        }\r\n        \r\n        \r\n        function processedItemByManufacturer(uint _upc,uint[] memory _machine, uint _productupc, address _merchandizerId,string memory _treatements , uint[] memory _empaddress) public\r\n        onlyDistributor() // check msg.sender belongs to DistributorRole\r\n        receivedByManufacturer(_upc)\r\n        verifyCaller(items[_upc].ownerID) // check msg.sender is owner\r\n        {\r\n            address brandID;\r\n        Denim memory product;\r\n        product.brandID=brandID;\r\n        product.productupc=_productupc;\r\n        product.treatements=_treatements;\r\n        product.machine_id=_machine;\r\n        product.empID=_empaddress;\r\n        product.ownerID=msg.sender;\r\n        product.manufacturerID=msg.sender;\r\n        product.creationTime=block.timestamp;\r\n        product.merchandizerid = _merchandizerId;\r\n        products[_productupc]=product;\r\n        uint256 batchno= uint256(keccak256(abi.encodePacked(msg.sender, block.timestamp)));\r\n        \r\n        idToProof[batchno].push(product);\r\n\r\n        \r\n        itemsHistory[_productupc].PM = block.number; // add block number\r\n        items[_upc].itemState = State.ProcessedByManufacturer; // update state\r\n        products[_productupc].productstate= State.ProcessedByManufacturer;\r\n        emit logNewItem   ( _productupc, _upc, _merchandizerId,  _treatements,'null','null','null',0,'null',batchno);\r\n        product.productsku=product.productsku+1;\r\n\r\n        emit ProcessedByManufacturer(_productupc);\r\n        }\r\n        \r\n        function ProductDetails(uint[] memory _upc, uint _productupc,uint[] memory machineid, uint[] memory employeeid)\r\n        public {\r\n            products[_productupc].machine_id=machineid;\r\n        products[_productupc].empID=employeeid;\r\n        products[_productupc].itemsUPC=_upc;\r\n       emit LogProductDetails(products[_productupc].machine_id,products[_productupc].itemsUPC, products[_productupc].empID);\r\n        }\r\n        function packageItemByDistributor(uint _productupc,uint256 _batchno) public\r\n        onlyDistributor() // check msg.sender belongs to DistributorRole\r\n        processByManufacturer(_productupc)\r\n        verifyCaller(products[_productupc].ownerID) // check msg.sender is owner\r\n        {\r\n        \r\n        products[_productupc].productstate= State.PackagedByManufacturer;\r\n        idToProof[_batchno].push(  products[_productupc]);\r\n        itemsHistory[_productupc].PPA = block.number; // add block number\r\n        emit PackagedByManufacturer(_productupc);\r\n        }\r\n        \r\n        function sellItemByDistributor(uint _productupc,uint256 _batchno) public\r\n        onlyDistributor() // check msg.sender belongs to DistributorRole\r\n        packagedByManufacturer(_productupc)\r\n        verifyCaller(products[_productupc].manufacturerID) // check msg.sender is owner\r\n        {\r\n        \r\n        products[_productupc].productstate= State.ForSaleByManufacturer;\r\n        idToProof[_batchno].push(  products[_productupc]);\r\n        emit logNewItem(_productupc,0,address(0),\"null\",\"null\",'null','null',0,'null',_batchno);\r\n        emit ForSaleByManufacturer(_productupc);\r\n        }\r\n        function purchaseItemByBrand(uint _upc,uint _productupc) public \r\n       onlyBrand() // check msg.sender belongs to ConsumerRole\r\n        forSaleByManufacturer(_productupc)\r\n        {\r\n        products[_productupc].brandID = msg.sender;\r\n        items[_upc].brandID=msg.sender;\r\n        products[_productupc].ownerID = msg.sender;\r\n        products[_productupc].productstate = State.PurchasedByBrand;\r\n        itemsHistory[_productupc].RTC = block.number;\r\n        emit lognewPurchse(_productupc,block.timestamp,products[_productupc].brandID,0,address(0),0);\r\n        emit PurchasedByBrand(_productupc);\r\n        }\r\n        function shippedItemByDistributor(uint _productupc ,uint _shipmentAgent) public\r\n        onlyDistributor() // check msg.sender belongs to DistributorRole\r\n        purchasedByBrand(_productupc)\r\n        verifyCaller(products[_productupc].manufacturerID) // check msg.sender is distributorID\r\n        {\r\n            products[_productupc].ShipmnetAgent=_shipmentAgent;\r\n        products[_productupc].productstate = State.ShippedByManufacturer;\r\n        emit lognewPurchse(_productupc,block.timestamp,address(0),_shipmentAgent,address(0),0);\r\n        emit ShippedByManufacturer(_productupc);\r\n        }\r\n        \r\n        function fetchItemBufferOne(uint _upc) public view returns\r\n        (\r\n        uint    itemSKU,\r\n        uint    itemUPC,\r\n        address ownerID,\r\n        address originSupplierID,\r\n        string memory  originSupplierName,\r\n        string memory originSupplierLatitude,\r\n        string memory originSupplierLongitude,\r\n        uint price,\r\n        uint creationtime\r\n        )\r\n        {\r\n        // Assign values to the 8 parameters\r\n        Item memory item = items[_upc];\r\n    \r\n        return (item.sku,\r\n          item.upc,\r\n          item.ownerID,\r\n         item.originsupplierID,\r\n          item.originsupplierName,\r\n          item.originsupplierLongitude,\r\n          item.originsupplierLatitude,\r\n          item.productPrice,\r\n          item.creationTime\r\n        );\r\n  }\r\n      function fetchItemBufferTwo(uint _upc) public view returns\r\n        (\r\n        uint    itemSKU,\r\n        uint    itemUPC,\r\n        uint    productID,\r\n        State   itemState,\r\n        address manufacturerID,\r\n        address brandID,\r\n        address merchandizerid\r\n        )\r\n        {\r\n          // Assign values to the 9 parameters\r\n        Item memory item = items[_upc];\r\n    \r\n        return\r\n        (\r\n          item.sku,\r\n          item.upc,\r\n          item.productID,\r\n          item.itemState,\r\n          item.manufacturerID,\r\n          item.brandID,\r\n          item.merchandizerid\r\n        );\r\n\r\n  }\r\n   function fetchItemBufferThree(uint _productupc) public view returns\r\n        (\r\n        uint    itemSKU,\r\n        uint    itemUPC,\r\n        address manufacturerID,\r\n        address brandID,\r\n        address merchandizerid,\r\n        string memory treatement,\r\n        State   itemState,\r\n        uint[] memory empID,\r\n        uint[] memory machine_id,\r\n        uint time\r\n        )\r\n        {\r\n          // Assign values to the 9 parameters\r\n        Denim memory product = products[_productupc];\r\n    \r\n        return\r\n        (\r\n          product.productsku,\r\n          product.productupc,\r\n          product.manufacturerID,\r\n          product.brandID,\r\n          product.merchandizerid,\r\n          product.treatements,\r\n          product.productstate,\r\n          product.empID,\r\n          product.machine_id,\r\n          product.creationTime\r\n          \r\n    \r\n        );\r\n\r\n  }\r\n    function fetchitemHistory(uint _upc, uint _productupc) public view returns\r\n        (\r\n          uint blockSupplierToDistributor,\r\n          uint blockManufacturerToBrand,\r\n          uint blockpurchsetoprocess,\r\n          uint blockprocesstopacakge\r\n        )\r\n        {\r\n          // Assign value to the parameters\r\n          Txblocks memory txblock = itemsHistory[_upc];\r\n          return\r\n          (\r\n            txblock.FTD,\r\n            txblock.RTC,\r\n            itemsHistory[_productupc].PM,\r\n            itemsHistory[_productupc].PPA\r\n    \r\n          );\r\n    \r\n        }\r\n\r\n\r\n\r\n   } ",
  "sourcePath": "E:/nodeweb3/ethereuem/contracts/exmaple.sol",
  "compiler": {
    "name": "solc",
    "version": "0.5.16+commit.9c3226ce.Emscripten.clang"
  },
  "schemaVersion": "3.3.2",
  "updatedAt": "2021-03-04T17:10:26.505Z",
  "devdoc": {
    "methods": {}
  },
  "userdoc": {
    "methods": {}
  }
}