{
  "contractName": "Supplychain",
  "abi": [
    {
      "inputs": [],
      "payable": false,
      "stateMutability": "nonpayable",
      "type": "constructor"
    },
    {
      "anonymous": false,
      "inputs": [
        {
          "indexed": true,
          "internalType": "address",
          "name": "account",
          "type": "address"
        }
      ],
      "name": "ConsumerAdded",
      "type": "event"
    },
    {
      "anonymous": false,
      "inputs": [
        {
          "indexed": true,
          "internalType": "address",
          "name": "account",
          "type": "address"
        }
      ],
      "name": "ConsumerRemoved",
      "type": "event"
    },
    {
      "anonymous": false,
      "inputs": [
        {
          "indexed": false,
          "internalType": "uint256",
          "name": "upc",
          "type": "uint256"
        }
      ],
      "name": "ForSaleByManufacturer",
      "type": "event"
    },
    {
      "anonymous": false,
      "inputs": [
        {
          "indexed": false,
          "internalType": "uint256",
          "name": "upc",
          "type": "uint256"
        }
      ],
      "name": "ForSaleBySupplier",
      "type": "event"
    },
    {
      "anonymous": false,
      "inputs": [
        {
          "indexed": true,
          "internalType": "address",
          "name": "_userAddress",
          "type": "address"
        },
        {
          "indexed": false,
          "internalType": "uint256",
          "name": "index",
          "type": "uint256"
        }
      ],
      "name": "LogNewUser",
      "type": "event"
    },
    {
      "anonymous": false,
      "inputs": [
        {
          "indexed": false,
          "internalType": "uint256[]",
          "name": "_upc",
          "type": "uint256[]"
        },
        {
          "indexed": false,
          "internalType": "uint256[]",
          "name": "_machineid",
          "type": "uint256[]"
        },
        {
          "indexed": false,
          "internalType": "uint256[]",
          "name": "_employeeid",
          "type": "uint256[]"
        }
      ],
      "name": "LogProductDetails",
      "type": "event"
    },
    {
      "anonymous": false,
      "inputs": [
        {
          "indexed": true,
          "internalType": "address",
          "name": "_userAddress",
          "type": "address"
        }
      ],
      "name": "ManufacturerAdded",
      "type": "event"
    },
    {
      "anonymous": false,
      "inputs": [
        {
          "indexed": true,
          "internalType": "address",
          "name": "_userAddress",
          "type": "address"
        }
      ],
      "name": "ManufacturerRemoved",
      "type": "event"
    },
    {
      "anonymous": false,
      "inputs": [
        {
          "indexed": false,
          "internalType": "uint256",
          "name": "upc",
          "type": "uint256"
        }
      ],
      "name": "PackagedByManufacturer",
      "type": "event"
    },
    {
      "anonymous": false,
      "inputs": [
        {
          "indexed": false,
          "internalType": "uint256",
          "name": "upc",
          "type": "uint256"
        }
      ],
      "name": "ProcessedByManufacturer",
      "type": "event"
    },
    {
      "anonymous": false,
      "inputs": [
        {
          "indexed": false,
          "internalType": "uint256",
          "name": "upc",
          "type": "uint256"
        }
      ],
      "name": "ProduceBySupplier",
      "type": "event"
    },
    {
      "anonymous": false,
      "inputs": [
        {
          "indexed": false,
          "internalType": "uint256",
          "name": "upc",
          "type": "uint256"
        }
      ],
      "name": "PurchasedByBrand",
      "type": "event"
    },
    {
      "anonymous": false,
      "inputs": [
        {
          "indexed": false,
          "internalType": "uint256",
          "name": "upc",
          "type": "uint256"
        }
      ],
      "name": "PurchasedByManufacturer",
      "type": "event"
    },
    {
      "anonymous": false,
      "inputs": [
        {
          "indexed": false,
          "internalType": "uint256",
          "name": "upc",
          "type": "uint256"
        }
      ],
      "name": "QuantityLesserThanRequired",
      "type": "event"
    },
    {
      "anonymous": false,
      "inputs": [
        {
          "indexed": false,
          "internalType": "uint256",
          "name": "upc",
          "type": "uint256"
        }
      ],
      "name": "ReceivedByBrand",
      "type": "event"
    },
    {
      "anonymous": false,
      "inputs": [
        {
          "indexed": false,
          "internalType": "uint256",
          "name": "upc",
          "type": "uint256"
        }
      ],
      "name": "ReceivedByManufacturer",
      "type": "event"
    },
    {
      "anonymous": false,
      "inputs": [
        {
          "indexed": false,
          "internalType": "uint256",
          "name": "upc",
          "type": "uint256"
        }
      ],
      "name": "ShippedByManufacturer",
      "type": "event"
    },
    {
      "anonymous": false,
      "inputs": [
        {
          "indexed": false,
          "internalType": "uint256",
          "name": "upc",
          "type": "uint256"
        }
      ],
      "name": "ShippedBySupplier",
      "type": "event"
    },
    {
      "anonymous": false,
      "inputs": [
        {
          "indexed": true,
          "internalType": "address",
          "name": "account",
          "type": "address"
        }
      ],
      "name": "SupplierAdded",
      "type": "event"
    },
    {
      "anonymous": false,
      "inputs": [
        {
          "indexed": true,
          "internalType": "address",
          "name": "account",
          "type": "address"
        }
      ],
      "name": "SupplierRemoved",
      "type": "event"
    },
    {
      "anonymous": false,
      "inputs": [
        {
          "indexed": false,
          "internalType": "uint256",
          "name": "_upc",
          "type": "uint256"
        },
        {
          "indexed": false,
          "internalType": "uint256",
          "name": "upc",
          "type": "uint256"
        },
        {
          "indexed": false,
          "internalType": "address",
          "name": "employee",
          "type": "address"
        },
        {
          "indexed": false,
          "internalType": "string",
          "name": "_originsupplierName",
          "type": "string"
        },
        {
          "indexed": false,
          "internalType": "string",
          "name": "_originsupplierLatitude",
          "type": "string"
        },
        {
          "indexed": false,
          "internalType": "string",
          "name": "_originsupplierLongitude",
          "type": "string"
        },
        {
          "indexed": false,
          "internalType": "string",
          "name": "_materialtype",
          "type": "string"
        },
        {
          "indexed": false,
          "internalType": "uint256",
          "name": "_price",
          "type": "uint256"
        },
        {
          "indexed": false,
          "internalType": "string",
          "name": "_dye",
          "type": "string"
        },
        {
          "indexed": false,
          "internalType": "uint256",
          "name": "hash",
          "type": "uint256"
        }
      ],
      "name": "logNewItem",
      "type": "event"
    },
    {
      "anonymous": false,
      "inputs": [
        {
          "indexed": false,
          "internalType": "uint256",
          "name": "_upc",
          "type": "uint256"
        },
        {
          "indexed": false,
          "internalType": "uint256",
          "name": "time",
          "type": "uint256"
        },
        {
          "indexed": false,
          "internalType": "address",
          "name": "_merch",
          "type": "address"
        },
        {
          "indexed": false,
          "internalType": "uint256",
          "name": "_quantity",
          "type": "uint256"
        },
        {
          "indexed": false,
          "internalType": "address",
          "name": "originsupplierID",
          "type": "address"
        },
        {
          "indexed": false,
          "internalType": "uint256",
          "name": "FTD",
          "type": "uint256"
        }
      ],
      "name": "lognewPurchse",
      "type": "event"
    },
    {
      "constant": false,
      "inputs": [
        {
          "internalType": "address",
          "name": "account",
          "type": "address"
        }
      ],
      "name": "addBrand",
      "outputs": [],
      "payable": false,
      "stateMutability": "nonpayable",
      "type": "function"
    },
    {
      "constant": false,
      "inputs": [
        {
          "internalType": "address",
          "name": "account",
          "type": "address"
        }
      ],
      "name": "addDistributor",
      "outputs": [],
      "payable": false,
      "stateMutability": "nonpayable",
      "type": "function"
    },
    {
      "constant": false,
      "inputs": [
        {
          "internalType": "address",
          "name": "_userAddress",
          "type": "address"
        }
      ],
      "name": "addSupplier",
      "outputs": [],
      "payable": false,
      "stateMutability": "nonpayable",
      "type": "function"
    },
    {
      "constant": true,
      "inputs": [],
      "name": "creationTime",
      "outputs": [
        {
          "internalType": "uint256",
          "name": "",
          "type": "uint256"
        }
      ],
      "payable": false,
      "stateMutability": "view",
      "type": "function"
    },
    {
      "constant": true,
      "inputs": [
        {
          "internalType": "uint256",
          "name": "",
          "type": "uint256"
        },
        {
          "internalType": "uint256",
          "name": "",
          "type": "uint256"
        }
      ],
      "name": "idToProof",
      "outputs": [
        {
          "internalType": "string",
          "name": "gramenttype",
          "type": "string"
        },
        {
          "internalType": "string",
          "name": "treatements",
          "type": "string"
        },
        {
          "internalType": "uint256",
          "name": "productupc",
          "type": "uint256"
        },
        {
          "internalType": "address",
          "name": "ownerID",
          "type": "address"
        },
        {
          "internalType": "enum Supplychain.State",
          "name": "productstate",
          "type": "uint8"
        },
        {
          "internalType": "uint256",
          "name": "productsku",
          "type": "uint256"
        },
        {
          "internalType": "address",
          "name": "brandID",
          "type": "address"
        },
        {
          "internalType": "uint256",
          "name": "creationTime",
          "type": "uint256"
        },
        {
          "internalType": "address",
          "name": "manufacturerID",
          "type": "address"
        },
        {
          "internalType": "address",
          "name": "merchandizerid",
          "type": "address"
        },
        {
          "internalType": "uint256",
          "name": "ShipmnetAgent",
          "type": "uint256"
        }
      ],
      "payable": false,
      "stateMutability": "view",
      "type": "function"
    },
    {
      "constant": true,
      "inputs": [
        {
          "internalType": "address",
          "name": "account",
          "type": "address"
        }
      ],
      "name": "isBrand",
      "outputs": [
        {
          "internalType": "bool",
          "name": "",
          "type": "bool"
        }
      ],
      "payable": false,
      "stateMutability": "view",
      "type": "function"
    },
    {
      "constant": true,
      "inputs": [
        {
          "internalType": "address",
          "name": "account",
          "type": "address"
        }
      ],
      "name": "isDistributor",
      "outputs": [
        {
          "internalType": "bool",
          "name": "",
          "type": "bool"
        }
      ],
      "payable": false,
      "stateMutability": "view",
      "type": "function"
    },
    {
      "constant": true,
      "inputs": [
        {
          "internalType": "address",
          "name": "_userAddress",
          "type": "address"
        }
      ],
      "name": "isSupplier",
      "outputs": [
        {
          "internalType": "bool",
          "name": "",
          "type": "bool"
        }
      ],
      "payable": false,
      "stateMutability": "view",
      "type": "function"
    },
    {
      "constant": true,
      "inputs": [
        {
          "internalType": "address",
          "name": "",
          "type": "address"
        },
        {
          "internalType": "address",
          "name": "",
          "type": "address"
        }
      ],
      "name": "mechsupquantity",
      "outputs": [
        {
          "internalType": "uint256",
          "name": "",
          "type": "uint256"
        }
      ],
      "payable": false,
      "stateMutability": "view",
      "type": "function"
    },
    {
      "constant": true,
      "inputs": [
        {
          "internalType": "address",
          "name": "",
          "type": "address"
        },
        {
          "internalType": "uint256",
          "name": "",
          "type": "uint256"
        }
      ],
      "name": "merhmap",
      "outputs": [
        {
          "internalType": "address",
          "name": "",
          "type": "address"
        }
      ],
      "payable": false,
      "stateMutability": "view",
      "type": "function"
    },
    {
      "constant": false,
      "inputs": [
        {
          "internalType": "address",
          "name": "account",
          "type": "address"
        }
      ],
      "name": "renounceConsumer",
      "outputs": [],
      "payable": false,
      "stateMutability": "nonpayable",
      "type": "function"
    },
    {
      "constant": false,
      "inputs": [],
      "name": "renounceDistributor",
      "outputs": [],
      "payable": false,
      "stateMutability": "nonpayable",
      "type": "function"
    },
    {
      "constant": false,
      "inputs": [],
      "name": "renounceSupplier",
      "outputs": [],
      "payable": false,
      "stateMutability": "nonpayable",
      "type": "function"
    },
    {
      "constant": false,
      "inputs": [
        {
          "internalType": "uint256",
          "name": "_upc",
          "type": "uint256"
        },
        {
          "internalType": "string",
          "name": "_originsupplierName",
          "type": "string"
        },
        {
          "internalType": "string",
          "name": "_originsupplierLatitude",
          "type": "string"
        },
        {
          "internalType": "string",
          "name": "_originsupplierLongitude",
          "type": "string"
        },
        {
          "internalType": "string",
          "name": "_materialtype",
          "type": "string"
        },
        {
          "internalType": "uint256",
          "name": "_price",
          "type": "uint256"
        },
        {
          "internalType": "string",
          "name": "_dye",
          "type": "string"
        }
      ],
      "name": "itemBySupplier",
      "outputs": [],
      "payable": false,
      "stateMutability": "nonpayable",
      "type": "function"
    },
    {
      "constant": false,
      "inputs": [
        {
          "internalType": "uint256",
          "name": "_upc",
          "type": "uint256"
        },
        {
          "internalType": "uint256",
          "name": "_price",
          "type": "uint256"
        }
      ],
      "name": "sellItemBySupplier",
      "outputs": [],
      "payable": false,
      "stateMutability": "nonpayable",
      "type": "function"
    },
    {
      "constant": false,
      "inputs": [
        {
          "internalType": "uint256",
          "name": "_upc",
          "type": "uint256"
        },
        {
          "internalType": "address",
          "name": "_merchandizerId",
          "type": "address"
        },
        {
          "internalType": "uint256",
          "name": "_quantity",
          "type": "uint256"
        }
      ],
      "name": "purchaseItemByManufacturer",
      "outputs": [],
      "payable": false,
      "stateMutability": "nonpayable",
      "type": "function"
    },
    {
      "constant": false,
      "inputs": [
        {
          "internalType": "uint256",
          "name": "_upc",
          "type": "uint256"
        }
      ],
      "name": "shippedItemBySupplier",
      "outputs": [],
      "payable": false,
      "stateMutability": "nonpayable",
      "type": "function"
    },
    {
      "constant": false,
      "inputs": [
        {
          "internalType": "uint256",
          "name": "_upc",
          "type": "uint256"
        },
        {
          "internalType": "uint256",
          "name": "quantity",
          "type": "uint256"
        },
        {
          "internalType": "address",
          "name": "_merchandizerId",
          "type": "address"
        }
      ],
      "name": "receivedItemByManufacturer",
      "outputs": [],
      "payable": false,
      "stateMutability": "nonpayable",
      "type": "function"
    },
    {
      "constant": false,
      "inputs": [
        {
          "internalType": "uint256",
          "name": "_upc",
          "type": "uint256"
        },
        {
          "internalType": "uint256[]",
          "name": "_machine",
          "type": "uint256[]"
        },
        {
          "internalType": "uint256",
          "name": "_productupc",
          "type": "uint256"
        },
        {
          "internalType": "address",
          "name": "_merchandizerId",
          "type": "address"
        },
        {
          "internalType": "string",
          "name": "_treatements",
          "type": "string"
        },
        {
          "internalType": "uint256[]",
          "name": "_empaddress",
          "type": "uint256[]"
        }
      ],
      "name": "processedItemByManufacturer",
      "outputs": [],
      "payable": false,
      "stateMutability": "nonpayable",
      "type": "function"
    },
    {
      "constant": false,
      "inputs": [
        {
          "internalType": "uint256[]",
          "name": "_upc",
          "type": "uint256[]"
        },
        {
          "internalType": "uint256",
          "name": "_productupc",
          "type": "uint256"
        },
        {
          "internalType": "uint256[]",
          "name": "machineid",
          "type": "uint256[]"
        },
        {
          "internalType": "uint256[]",
          "name": "employeeid",
          "type": "uint256[]"
        }
      ],
      "name": "ProductDetails",
      "outputs": [],
      "payable": false,
      "stateMutability": "nonpayable",
      "type": "function"
    },
    {
      "constant": false,
      "inputs": [
        {
          "internalType": "uint256",
          "name": "_productupc",
          "type": "uint256"
        },
        {
          "internalType": "uint256",
          "name": "_batchno",
          "type": "uint256"
        }
      ],
      "name": "packageItemByDistributor",
      "outputs": [],
      "payable": false,
      "stateMutability": "nonpayable",
      "type": "function"
    },
    {
      "constant": false,
      "inputs": [
        {
          "internalType": "uint256",
          "name": "_productupc",
          "type": "uint256"
        },
        {
          "internalType": "uint256",
          "name": "_batchno",
          "type": "uint256"
        }
      ],
      "name": "sellItemByDistributor",
      "outputs": [],
      "payable": false,
      "stateMutability": "nonpayable",
      "type": "function"
    },
    {
      "constant": false,
      "inputs": [
        {
          "internalType": "uint256",
          "name": "_upc",
          "type": "uint256"
        },
        {
          "internalType": "uint256",
          "name": "_productupc",
          "type": "uint256"
        }
      ],
      "name": "purchaseItemByBrand",
      "outputs": [],
      "payable": false,
      "stateMutability": "nonpayable",
      "type": "function"
    },
    {
      "constant": false,
      "inputs": [
        {
          "internalType": "uint256",
          "name": "_productupc",
          "type": "uint256"
        },
        {
          "internalType": "uint256",
          "name": "_shipmentAgent",
          "type": "uint256"
        }
      ],
      "name": "shippedItemByDistributor",
      "outputs": [],
      "payable": false,
      "stateMutability": "nonpayable",
      "type": "function"
    },
    {
      "constant": true,
      "inputs": [
        {
          "internalType": "uint256",
          "name": "_upc",
          "type": "uint256"
        }
      ],
      "name": "fetchItemBufferOne",
      "outputs": [
        {
          "internalType": "uint256",
          "name": "itemSKU",
          "type": "uint256"
        },
        {
          "internalType": "uint256",
          "name": "itemUPC",
          "type": "uint256"
        },
        {
          "internalType": "address",
          "name": "ownerID",
          "type": "address"
        },
        {
          "internalType": "address",
          "name": "originSupplierID",
          "type": "address"
        },
        {
          "internalType": "string",
          "name": "originSupplierName",
          "type": "string"
        },
        {
          "internalType": "string",
          "name": "originSupplierLatitude",
          "type": "string"
        },
        {
          "internalType": "string",
          "name": "originSupplierLongitude",
          "type": "string"
        },
        {
          "internalType": "uint256",
          "name": "price",
          "type": "uint256"
        },
        {
          "internalType": "uint256",
          "name": "creationtime",
          "type": "uint256"
        }
      ],
      "payable": false,
      "stateMutability": "view",
      "type": "function"
    },
    {
      "constant": true,
      "inputs": [
        {
          "internalType": "uint256",
          "name": "_upc",
          "type": "uint256"
        }
      ],
      "name": "fetchItemBufferTwo",
      "outputs": [
        {
          "internalType": "uint256",
          "name": "itemSKU",
          "type": "uint256"
        },
        {
          "internalType": "uint256",
          "name": "itemUPC",
          "type": "uint256"
        },
        {
          "internalType": "uint256",
          "name": "productID",
          "type": "uint256"
        },
        {
          "internalType": "enum Supplychain.State",
          "name": "itemState",
          "type": "uint8"
        },
        {
          "internalType": "address",
          "name": "manufacturerID",
          "type": "address"
        },
        {
          "internalType": "address",
          "name": "brandID",
          "type": "address"
        },
        {
          "internalType": "address",
          "name": "merchandizerid",
          "type": "address"
        }
      ],
      "payable": false,
      "stateMutability": "view",
      "type": "function"
    },
    {
      "constant": true,
      "inputs": [
        {
          "internalType": "uint256",
          "name": "_productupc",
          "type": "uint256"
        }
      ],
      "name": "fetchItemBufferThree",
      "outputs": [
        {
          "internalType": "uint256",
          "name": "itemSKU",
          "type": "uint256"
        },
        {
          "internalType": "uint256",
          "name": "itemUPC",
          "type": "uint256"
        },
        {
          "internalType": "address",
          "name": "manufacturerID",
          "type": "address"
        },
        {
          "internalType": "address",
          "name": "brandID",
          "type": "address"
        },
        {
          "internalType": "address",
          "name": "merchandizerid",
          "type": "address"
        },
        {
          "internalType": "string",
          "name": "treatement",
          "type": "string"
        },
        {
          "internalType": "enum Supplychain.State",
          "name": "itemState",
          "type": "uint8"
        },
        {
          "internalType": "uint256[]",
          "name": "empID",
          "type": "uint256[]"
        },
        {
          "internalType": "uint256[]",
          "name": "machine_id",
          "type": "uint256[]"
        },
        {
          "internalType": "uint256",
          "name": "time",
          "type": "uint256"
        }
      ],
      "payable": false,
      "stateMutability": "view",
      "type": "function"
    },
    {
      "constant": true,
      "inputs": [
        {
          "internalType": "uint256",
          "name": "_upc",
          "type": "uint256"
        },
        {
          "internalType": "uint256",
          "name": "_productupc",
          "type": "uint256"
        }
      ],
      "name": "fetchitemHistory",
      "outputs": [
        {
          "internalType": "uint256",
          "name": "blockSupplierToDistributor",
          "type": "uint256"
        },
        {
          "internalType": "uint256",
          "name": "blockManufacturerToBrand",
          "type": "uint256"
        },
        {
          "internalType": "uint256",
          "name": "blockpurchsetoprocess",
          "type": "uint256"
        },
        {
          "internalType": "uint256",
          "name": "blockprocesstopacakge",
          "type": "uint256"
        }
      ],
      "payable": false,
      "stateMutability": "view",
      "type": "function"
    }
  ],
  "bytecode": "0x60806040523480156200001157600080fd5b506200002333620000f460201b60201c565b4260008190555033600260006101000a81548173ffffffffffffffffffffffffffffffffffffffff021916908373ffffffffffffffffffffffffffffffffffffffff1602179055506200007c336200015560201b60201c565b6200008d33620001b660201b60201c565b33600c60006101000a81548173ffffffffffffffffffffffffffffffffffffffff021916908373ffffffffffffffffffffffffffffffffffffffff1602179055506001600a8190555060016007819055506001600881905550600160098190555062000360565b6200010f8160016200021760201b620040801790919060201c565b8073ffffffffffffffffffffffffffffffffffffffff167fa9f13e94f3f7dbf69ac8405e3aa6f43a6f162984687d099c7a5cd9b602552cc260405160405180910390a250565b620001708160046200021760201b620040801790919060201c565b8073ffffffffffffffffffffffffffffffffffffffff167f561138658ca49a8540dc70dcfe64c9026c1c5b9344642242dd6562970f9c127860405160405180910390a250565b620001d18160066200021760201b620040801790919060201c565b8073ffffffffffffffffffffffffffffffffffffffff167f28b26e7a3d20aedbc5f8f2ebf7da671c0491723a2b78f47a097b0e46dee0714260405160405180910390a250565b600073ffffffffffffffffffffffffffffffffffffffff168173ffffffffffffffffffffffffffffffffffffffff1614156200025257600080fd5b620002648282620002cd60201b60201c565b156200026f57600080fd5b60018260000160008373ffffffffffffffffffffffffffffffffffffffff1673ffffffffffffffffffffffffffffffffffffffff16815260200190815260200160002060006101000a81548160ff0219169083151502179055505050565b60008073ffffffffffffffffffffffffffffffffffffffff168273ffffffffffffffffffffffffffffffffffffffff1614156200030957600080fd5b8260000160008373ffffffffffffffffffffffffffffffffffffffff1673ffffffffffffffffffffffffffffffffffffffff16815260200190815260200160002060009054906101000a900460ff16905092915050565b61579e80620003706000396000f3fe608060405234801561001057600080fd5b50600436106101c45760003560e01c806379b9e2bf116100f9578063acd5fba611610097578063cd8a390211610071578063cd8a390214610531578063d16fe4771461054d578063d8270dce14610569578063f487d48d14610587576101c4565b8063acd5fba61461048e578063c83d1c02146104c7578063cc8f125614610501576101c4565b806392024888116100d3578063920248881461041c578063950026be1461042657806397100581146104565780639dc9ee6814610472576101c4565b806379b9e2bf146103b45780638adff8ba146103d05780638f0c86fa146103ec576101c4565b806361be934a1161016657806366225ff91161014057806366225ff91461030e5780637250e2241461034457806376fb58341461036057806377c459131461037c576101c4565b806361be934a146102cc578063644241db146102e857806365594ed2146102f2576101c4565b806345b51bf1116101a257806345b51bf114610231578063463365421461024d5780635230bd9c1461027d57806358aa5b2b146102b0576101c4565b806305a5562d146101c95780630f7ccb55146101f957806317df474514610215575b600080fd5b6101e360048036036101de91908101906146e7565b6105a3565b6040516101f09190614dd4565b60405180910390f35b610213600480360361020e9190810190614788565b6105c0565b005b61022f600480360361022a91908101906146e7565b6106c1565b005b61024b60048036036102469190810190614a92565b6106df565b005b610267600480360361026291908101906146e7565b610837565b6040516102749190614dd4565b60405180910390f35b61029760048036036102929190810190614a92565b610854565b6040516102a79493929190615434565b60405180910390f35b6102ca60048036036102c591908101906146e7565b6108f4565b005b6102e660048036036102e19190810190614a92565b610912565b005b6102f0610b72565b005b61030c6004803603610307919081019061485c565b610b7d565b005b61032860048036036103239190810190614833565b610f48565b60405161033b97969594939291906153c5565b60405180910390f35b61035e600480360361035991908101906146e7565b6114ff565b005b61037a60048036036103759190810190614ace565b61151d565b005b61039660048036036103919190810190614833565b611847565b6040516103ab999897969594939291906151aa565b60405180910390f35b6103ce60048036036103c99190810190614833565b611e16565b005b6103ea60048036036103e59190810190614a92565b611f95565b005b610406600480360361040191908101906146e7565b6123f6565b6040516104139190614dd4565b60405180910390f35b610424612413565b005b610440600480360361043b919081019061474c565b61241e565b60405161044d9190614d6d565b60405180910390f35b610470600480360361046b91908101906148ab565b612469565b005b61048c6004803603610487919081019061497c565b612c01565b005b6104a860048036036104a39190810190614833565b613100565b6040516104be9a999897969594939291906150f9565b60405180910390f35b6104e160048036036104dc9190810190614a92565b613594565b6040516104f89b9a99989796959493929190614def565b60405180910390f35b61051b60048036036105169190810190614710565b6137c5565b6040516105289190614ea8565b60405180910390f35b61054b60048036036105469190810190614a92565b6137ea565b005b61056760048036036105629190810190614a92565b613985565b005b610571613dc0565b60405161057e9190614ea8565b60405180910390f35b6105a1600480360361059c91908101906146e7565b613dc6565b005b60006105b9826006613dd290919063ffffffff16565b9050919050565b81600e6000858152602001908152602001600020600b0190805190602001906105ea9291906141d7565b5080600e600085815260200190815260200160002060060190805190602001906106159291906141d7565b5083600e6000858152602001908152602001600020600c0190805190602001906106409291906141d7565b507f3d68041ba0cfeeb44e4066d02cfcddd496b835a24165575dd857ec2dbb597cd3600e6000858152602001908152602001600020600b01600e6000868152602001908152602001600020600c01600e60008781526020019081526020016000206006016040516106b393929190614d88565b60405180910390a150505050565b6106ca33610837565b6106d357600080fd5b6106dc81613e64565b50565b6106e833610837565b6106f157600080fd5b816000600a8111156106ff57fe5b600d6000838152602001908152602001600020600c0160009054906101000a900460ff16600a81111561072e57fe5b1461073857600080fd5b600d600084815260200190815260200160002060030160009054906101000a900473ffffffffffffffffffffffffffffffffffffffff168073ffffffffffffffffffffffffffffffffffffffff163373ffffffffffffffffffffffffffffffffffffffff16146107a757600080fd5b6001600d6000868152602001908152602001600020600c0160006101000a81548160ff0219169083600a8111156107da57fe5b021790555082600d6000868152602001908152602001600020600901819055507f914ebd2bdf7f864b33c4373065a44169fe6eee2f33eff110e253f1bc7cfb09ca846040516108299190614ea8565b60405180910390a150505050565b600061084d826001613dd290919063ffffffff16565b9050919050565b600080600080610862614224565b601060008881526020019081526020016000206040518060800160405290816000820154815260200160018201548152602001600282015481526020016003820154815250509050806000015181602001516010600089815260200190815260200160002060020154601060008a81526020019081526020016000206003015494509450945094505092959194509250565b6108fd336105a3565b61090657600080fd5b61090f81613ebe565b50565b61091b336105a3565b61092457600080fd5b806007600a81111561093257fe5b600e600083815260200190815260200160002060030160149054906101000a900460ff16600a81111561096157fe5b1461096b57600080fd5b33600e600084815260200190815260200160002060050160006101000a81548173ffffffffffffffffffffffffffffffffffffffff021916908373ffffffffffffffffffffffffffffffffffffffff16021790555033600d600085815260200190815260200160002060100160006101000a81548173ffffffffffffffffffffffffffffffffffffffff021916908373ffffffffffffffffffffffffffffffffffffffff16021790555033600e600084815260200190815260200160002060030160006101000a81548173ffffffffffffffffffffffffffffffffffffffff021916908373ffffffffffffffffffffffffffffffffffffffff1602179055506008600e600084815260200190815260200160002060030160146101000a81548160ff0219169083600a811115610a9d57fe5b02179055504360106000848152602001908152602001600020600101819055507f02fc3a44c57d1519d525e4603eee1aa9fd4633cc268319f1e22f6cdfee0aec2b8242600e600086815260200190815260200160002060050160009054906101000a900473ffffffffffffffffffffffffffffffffffffffff166000806000604051610b2e9695949392919061524c565b60405180910390a17f501256bfa702276ed3494bd7527e2b7b43d3ce3164932574557e1ee5f1a9efb982604051610b659190614ea8565b60405180910390a1505050565b610b7b33613f18565b565b610b86336123f6565b610b8f57600080fd5b826001600a811115610b9d57fe5b600d6000838152602001908152602001600020600c0160009054906101000a900460ff16600a811115610bcc57fe5b14610bd657600080fd5b33600d600086815260200190815260200160002060030160006101000a81548173ffffffffffffffffffffffffffffffffffffffff021916908373ffffffffffffffffffffffffffffffffffffffff16021790555033600d6000868152602001908152602001600020600f0160006101000a81548173ffffffffffffffffffffffffffffffffffffffff021916908373ffffffffffffffffffffffffffffffffffffffff16021790555081600d6000868152602001908152602001600020600a01819055506002600d6000868152602001908152602001600020600c0160006101000a81548160ff0219169083600a811115610cce57fe5b0217905550601160008473ffffffffffffffffffffffffffffffffffffffff1673ffffffffffffffffffffffffffffffffffffffff168152602001908152602001600020600d600086815260200190815260200160002060040160009054906101000a900473ffffffffffffffffffffffffffffffffffffffff1690806001815401808255809150509060018203906000526020600020016000909192909190916101000a81548173ffffffffffffffffffffffffffffffffffffffff021916908373ffffffffffffffffffffffffffffffffffffffff1602179055505081601260008573ffffffffffffffffffffffffffffffffffffffff1673ffffffffffffffffffffffffffffffffffffffff1681526020019081526020016000206000600d600088815260200190815260200160002060040160009054906101000a900473ffffffffffffffffffffffffffffffffffffffff1673ffffffffffffffffffffffffffffffffffffffff1673ffffffffffffffffffffffffffffffffffffffff168152602001908152602001600020819055504360106000868152602001908152602001600020600001819055507f02fc3a44c57d1519d525e4603eee1aa9fd4633cc268319f1e22f6cdfee0aec2b84428585600d60008a815260200190815260200160002060040160009054906101000a900473ffffffffffffffffffffffffffffffffffffffff16601060008b815260200190815260200160002060000154604051610f0396959493929190615364565b60405180910390a17fb440ff508b4714f01c34e25032a6e23377f47c0f9c56d4fcdd11bb2b6cd5974784604051610f3a9190614ea8565b60405180910390a150505050565b6000806000806000806000610f5b61424c565b600d60008a8152602001908152602001600020604051806102200160405290816000820154815260200160018201548152602001600282015481526020016003820160009054906101000a900473ffffffffffffffffffffffffffffffffffffffff1673ffffffffffffffffffffffffffffffffffffffff1673ffffffffffffffffffffffffffffffffffffffff1681526020016004820160009054906101000a900473ffffffffffffffffffffffffffffffffffffffff1673ffffffffffffffffffffffffffffffffffffffff1673ffffffffffffffffffffffffffffffffffffffff168152602001600582018054600181600116156101000203166002900480601f0160208091040260200160405190810160405280929190818152602001828054600181600116156101000203166002900480156110dd5780601f106110b2576101008083540402835291602001916110dd565b820191906000526020600020905b8154815290600101906020018083116110c057829003601f168201915b50505050508152602001600682018054600181600116156101000203166002900480601f01602080910402602001604051908101604052809291908181526020018280546001816001161561010002031660029004801561117f5780601f106111545761010080835404028352916020019161117f565b820191906000526020600020905b81548152906001019060200180831161116257829003601f168201915b50505050508152602001600782018054600181600116156101000203166002900480601f0160208091040260200160405190810160405280929190818152602001828054600181600116156101000203166002900480156112215780601f106111f657610100808354040283529160200191611221565b820191906000526020600020905b81548152906001019060200180831161120457829003601f168201915b505050505081526020016008820154815260200160098201548152602001600a8201548152602001600b82018054600181600116156101000203166002900480601f0160208091040260200160405190810160405280929190818152602001828054600181600116156101000203166002900480156112e15780601f106112b6576101008083540402835291602001916112e1565b820191906000526020600020905b8154815290600101906020018083116112c457829003601f168201915b50505050508152602001600c820160009054906101000a900460ff16600a81111561130857fe5b600a81111561131357fe5b8152602001600d82018054600181600116156101000203166002900480601f0160208091040260200160405190810160405280929190818152602001828054600181600116156101000203166002900480156113b05780601f10611385576101008083540402835291602001916113b0565b820191906000526020600020905b81548152906001019060200180831161139357829003601f168201915b50505050508152602001600e820160009054906101000a900473ffffffffffffffffffffffffffffffffffffffff1673ffffffffffffffffffffffffffffffffffffffff1673ffffffffffffffffffffffffffffffffffffffff168152602001600f820160009054906101000a900473ffffffffffffffffffffffffffffffffffffffff1673ffffffffffffffffffffffffffffffffffffffff1673ffffffffffffffffffffffffffffffffffffffff1681526020016010820160009054906101000a900473ffffffffffffffffffffffffffffffffffffffff1673ffffffffffffffffffffffffffffffffffffffff1673ffffffffffffffffffffffffffffffffffffffff1681525050905080600001518160200151826101000151836101800151846101e00151856102000151866101c00151975097509750975097509750975050919395979092949650565b611508336123f6565b61151157600080fd5b61151a81613f72565b50565b611526336123f6565b61152f57600080fd5b826003600a81111561153d57fe5b600d6000838152602001908152602001600020600c0160009054906101000a900460ff16600a81111561156c57fe5b1461157657600080fd5b600d600085815260200190815260200160002060030160009054906101000a900473ffffffffffffffffffffffffffffffffffffffff168073ffffffffffffffffffffffffffffffffffffffff163373ffffffffffffffffffffffffffffffffffffffff16146115e557600080fd5b83601260008573ffffffffffffffffffffffffffffffffffffffff1673ffffffffffffffffffffffffffffffffffffffff1681526020019081526020016000206000600d600089815260200190815260200160002060040160009054906101000a900473ffffffffffffffffffffffffffffffffffffffff1673ffffffffffffffffffffffffffffffffffffffff1673ffffffffffffffffffffffffffffffffffffffff1681526020019081526020016000205410156116d7577fceeaa614086f537824b8facd481479945bc10502ffaf4a63dcc263cd7a0fc13d846040516116ce9190614ea8565b60405180910390a15b6004600d6000878152602001908152602001600020600c0160006101000a81548160ff0219169083600a81111561170a57fe5b021790555083601260008573ffffffffffffffffffffffffffffffffffffffff1673ffffffffffffffffffffffffffffffffffffffff1681526020019081526020016000206000600d600089815260200190815260200160002060040160009054906101000a900473ffffffffffffffffffffffffffffffffffffffff1673ffffffffffffffffffffffffffffffffffffffff1673ffffffffffffffffffffffffffffffffffffffff168152602001908152602001600020819055507f02fc3a44c57d1519d525e4603eee1aa9fd4633cc268319f1e22f6cdfee0aec2b854260008060008060405161180196959493929190615037565b60405180910390a17f93c3a2ac0f7ddbc4cd65eaa2a13e4ff3b6b4e3d7ce8eb23bf7b190d829e4abbb856040516118389190614ea8565b60405180910390a15050505050565b600080600080606080606060008061185d61424c565b600d60008c8152602001908152602001600020604051806102200160405290816000820154815260200160018201548152602001600282015481526020016003820160009054906101000a900473ffffffffffffffffffffffffffffffffffffffff1673ffffffffffffffffffffffffffffffffffffffff1673ffffffffffffffffffffffffffffffffffffffff1681526020016004820160009054906101000a900473ffffffffffffffffffffffffffffffffffffffff1673ffffffffffffffffffffffffffffffffffffffff1673ffffffffffffffffffffffffffffffffffffffff168152602001600582018054600181600116156101000203166002900480601f0160208091040260200160405190810160405280929190818152602001828054600181600116156101000203166002900480156119df5780601f106119b4576101008083540402835291602001916119df565b820191906000526020600020905b8154815290600101906020018083116119c257829003601f168201915b50505050508152602001600682018054600181600116156101000203166002900480601f016020809104026020016040519081016040528092919081815260200182805460018160011615610100020316600290048015611a815780601f10611a5657610100808354040283529160200191611a81565b820191906000526020600020905b815481529060010190602001808311611a6457829003601f168201915b50505050508152602001600782018054600181600116156101000203166002900480601f016020809104026020016040519081016040528092919081815260200182805460018160011615610100020316600290048015611b235780601f10611af857610100808354040283529160200191611b23565b820191906000526020600020905b815481529060010190602001808311611b0657829003601f168201915b505050505081526020016008820154815260200160098201548152602001600a8201548152602001600b82018054600181600116156101000203166002900480601f016020809104026020016040519081016040528092919081815260200182805460018160011615610100020316600290048015611be35780601f10611bb857610100808354040283529160200191611be3565b820191906000526020600020905b815481529060010190602001808311611bc657829003601f168201915b50505050508152602001600c820160009054906101000a900460ff16600a811115611c0a57fe5b600a811115611c1557fe5b8152602001600d82018054600181600116156101000203166002900480601f016020809104026020016040519081016040528092919081815260200182805460018160011615610100020316600290048015611cb25780601f10611c8757610100808354040283529160200191611cb2565b820191906000526020600020905b815481529060010190602001808311611c9557829003601f168201915b50505050508152602001600e820160009054906101000a900473ffffffffffffffffffffffffffffffffffffffff1673ffffffffffffffffffffffffffffffffffffffff1673ffffffffffffffffffffffffffffffffffffffff168152602001600f820160009054906101000a900473ffffffffffffffffffffffffffffffffffffffff1673ffffffffffffffffffffffffffffffffffffffff1673ffffffffffffffffffffffffffffffffffffffff1681526020016010820160009054906101000a900473ffffffffffffffffffffffffffffffffffffffff1673ffffffffffffffffffffffffffffffffffffffff1673ffffffffffffffffffffffffffffffffffffffff1681525050905080600001518160200151826060015183608001518460a001518560e001518660c001518761012001518860400151849450839350829250995099509950995099509950995099509950509193959799909294969850565b611e1f33610837565b611e2857600080fd5b806002600a811115611e3657fe5b600d6000838152602001908152602001600020600c0160009054906101000a900460ff16600a811115611e6557fe5b14611e6f57600080fd5b600d600083815260200190815260200160002060040160009054906101000a900473ffffffffffffffffffffffffffffffffffffffff168073ffffffffffffffffffffffffffffffffffffffff163373ffffffffffffffffffffffffffffffffffffffff1614611ede57600080fd5b6003600d6000858152602001908152602001600020600c0160006101000a81548160ff0219169083600a811115611f1157fe5b02179055507f02fc3a44c57d1519d525e4603eee1aa9fd4633cc268319f1e22f6cdfee0aec2b8342600080600080604051611f5196959493929190615037565b60405180910390a17f99507569678e1348abffef8016abddc87c98ffb6cf91c1956f0859a2ce8e389083604051611f889190614ea8565b60405180910390a1505050565b611f9e336123f6565b611fa757600080fd5b816006600a811115611fb557fe5b600e600083815260200190815260200160002060030160149054906101000a900460ff16600a811115611fe457fe5b14611fee57600080fd5b600e600084815260200190815260200160002060080160009054906101000a900473ffffffffffffffffffffffffffffffffffffffff168073ffffffffffffffffffffffffffffffffffffffff163373ffffffffffffffffffffffffffffffffffffffff161461205d57600080fd5b6007600e600086815260200190815260200160002060030160146101000a81548160ff0219169083600a81111561209057fe5b0217905550600f6000848152602001908152602001600020600e60008681526020019081526020016000209080600181540180825580915050906001820390600052602060002090600d0201600090919290919091506000820181600001908054600181600116156101000203166002900461210d929190614349565b5060018201816001019080546001816001161561010002031660029004612135929190614349565b50600282015481600201556003820160009054906101000a900473ffffffffffffffffffffffffffffffffffffffff168160030160006101000a81548173ffffffffffffffffffffffffffffffffffffffff021916908373ffffffffffffffffffffffffffffffffffffffff1602179055506003820160149054906101000a900460ff168160030160146101000a81548160ff0219169083600a8111156121d857fe5b0217905550600482015481600401556005820160009054906101000a900473ffffffffffffffffffffffffffffffffffffffff168160050160006101000a81548173ffffffffffffffffffffffffffffffffffffffff021916908373ffffffffffffffffffffffffffffffffffffffff16021790555060068201816006019080546122649291906143d0565b50600782015481600701556008820160009054906101000a900473ffffffffffffffffffffffffffffffffffffffff168160080160006101000a81548173ffffffffffffffffffffffffffffffffffffffff021916908373ffffffffffffffffffffffffffffffffffffffff1602179055506009820160009054906101000a900473ffffffffffffffffffffffffffffffffffffffff168160090160006101000a81548173ffffffffffffffffffffffffffffffffffffffff021916908373ffffffffffffffffffffffffffffffffffffffff160217905550600a82015481600a0155600b820181600b0190805461235d9291906143d0565b50600c820181600c019080546123749291906143d0565b505050507f67e82eaa375365af2a34845a94a77c29f7a9f3fa2faa58fdd182bffb7972981e846000806000876040516123b1959493929190614f82565b60405180910390a17faec623c8803eb3c795344cb3d2178da45139e85d984a1dc348cf9dc8bd7ff160846040516123e89190614ea8565b60405180910390a150505050565b600061240c826004613dd290919063ffffffff16565b9050919050565b61241c33613fcc565b565b6011602052816000526040600020818154811061243757fe5b906000526020600020016000915091509054906101000a900473ffffffffffffffffffffffffffffffffffffffff1681565b612472336123f6565b61247b57600080fd5b856004600a81111561248957fe5b600d6000838152602001908152602001600020600c0160009054906101000a900460ff16600a8111156124b857fe5b146124c257600080fd5b600d600088815260200190815260200160002060030160009054906101000a900473ffffffffffffffffffffffffffffffffffffffff168073ffffffffffffffffffffffffffffffffffffffff163373ffffffffffffffffffffffffffffffffffffffff161461253157600080fd5b600061253b614422565b818160c0019073ffffffffffffffffffffffffffffffffffffffff16908173ffffffffffffffffffffffffffffffffffffffff16815250508781604001818152505085816020018190525088816101800181905250848160e0018190525033816060019073ffffffffffffffffffffffffffffffffffffffff16908173ffffffffffffffffffffffffffffffffffffffff16815250503381610120019073ffffffffffffffffffffffffffffffffffffffff16908173ffffffffffffffffffffffffffffffffffffffff168152505042816101000181815250508681610140019073ffffffffffffffffffffffffffffffffffffffff16908173ffffffffffffffffffffffffffffffffffffffff168152505080600e60008a8152602001908152602001600020600082015181600001908051906020019061267e9291906144f4565b50602082015181600101908051906020019061269b9291906144f4565b506040820151816002015560608201518160030160006101000a81548173ffffffffffffffffffffffffffffffffffffffff021916908373ffffffffffffffffffffffffffffffffffffffff16021790555060808201518160030160146101000a81548160ff0219169083600a81111561271157fe5b021790555060a0820151816004015560c08201518160050160006101000a81548173ffffffffffffffffffffffffffffffffffffffff021916908373ffffffffffffffffffffffffffffffffffffffff16021790555060e0820151816006019080519060200190612783929190614574565b5061010082015181600701556101208201518160080160006101000a81548173ffffffffffffffffffffffffffffffffffffffff021916908373ffffffffffffffffffffffffffffffffffffffff1602179055506101408201518160090160006101000a81548173ffffffffffffffffffffffffffffffffffffffff021916908373ffffffffffffffffffffffffffffffffffffffff16021790555061016082015181600a015561018082015181600b019080519060200190612847929190614574565b506101a082015181600c019080519060200190612865929190614574565b509050506000334260405160200161287e929190614d41565b6040516020818303038152906040528051906020012060001c9050600f6000828152602001908152602001600020829080600181540180825580915050906001820390600052602060002090600d02016000909192909190915060008201518160000190805190602001906128f49291906144f4565b5060208201518160010190805190602001906129119291906144f4565b506040820151816002015560608201518160030160006101000a81548173ffffffffffffffffffffffffffffffffffffffff021916908373ffffffffffffffffffffffffffffffffffffffff16021790555060808201518160030160146101000a81548160ff0219169083600a81111561298757fe5b021790555060a0820151816004015560c08201518160050160006101000a81548173ffffffffffffffffffffffffffffffffffffffff021916908373ffffffffffffffffffffffffffffffffffffffff16021790555060e08201518160060190805190602001906129f9929190614574565b5061010082015181600701556101208201518160080160006101000a81548173ffffffffffffffffffffffffffffffffffffffff021916908373ffffffffffffffffffffffffffffffffffffffff1602179055506101408201518160090160006101000a81548173ffffffffffffffffffffffffffffffffffffffff021916908373ffffffffffffffffffffffffffffffffffffffff16021790555061016082015181600a015561018082015181600b019080519060200190612abd929190614574565b506101a082015181600c019080519060200190612adb929190614574565b5050505043601060008b8152602001908152602001600020600201819055506005600d60008d8152602001908152602001600020600c0160006101000a81548160ff0219169083600a811115612b2d57fe5b02179055506005600e60008b815260200190815260200160002060030160146101000a81548160ff0219169083600a811115612b6557fe5b02179055507f67e82eaa375365af2a34845a94a77c29f7a9f3fa2faa58fdd182bffb7972981e898c8a8a600086604051612ba4969594939291906152ad565b60405180910390a160018260a00151018260a00181815250507f5fc421e1448c4300040cbf06d1cae916e7f78e8efc65d9e76ba3970fcacbb08c89604051612bec9190614ea8565b60405180910390a15050505050505050505050565b612c0a33610837565b612c1357600080fd5b600080612c1e61424c565b600a548160000181815250508981602001818152505033816060019073ffffffffffffffffffffffffffffffffffffffff16908173ffffffffffffffffffffffffffffffffffffffff168152505033816080019073ffffffffffffffffffffffffffffffffffffffff16908173ffffffffffffffffffffffffffffffffffffffff1681525050888160a00181905250878160c00181905250868160e00181905250600a548a01816101000181815250508481610120018181525050428160400181815250508381610160018190525085816101a001819052506000816101800190600a811115612d0a57fe5b9081600a811115612d1757fe5b8152505082816101e0019073ffffffffffffffffffffffffffffffffffffffff16908173ffffffffffffffffffffffffffffffffffffffff16815250508181610200019073ffffffffffffffffffffffffffffffffffffffff16908173ffffffffffffffffffffffffffffffffffffffff168152505080600d60008c815260200190815260200160002060008201518160000155602082015181600101556040820151816002015560608201518160030160006101000a81548173ffffffffffffffffffffffffffffffffffffffff021916908373ffffffffffffffffffffffffffffffffffffffff16021790555060808201518160040160006101000a81548173ffffffffffffffffffffffffffffffffffffffff021916908373ffffffffffffffffffffffffffffffffffffffff16021790555060a0820151816005019080519060200190612e699291906144f4565b5060c0820151816006019080519060200190612e869291906144f4565b5060e0820151816007019080519060200190612ea39291906144f4565b506101008201518160080155610120820151816009015561014082015181600a015561016082015181600b019080519060200190612ee29291906144f4565b5061018082015181600c0160006101000a81548160ff0219169083600a811115612f0857fe5b02179055506101a082015181600d019080519060200190612f2a9291906144f4565b506101c082015181600e0160006101000a81548173ffffffffffffffffffffffffffffffffffffffff021916908373ffffffffffffffffffffffffffffffffffffffff1602179055506101e082015181600f0160006101000a81548173ffffffffffffffffffffffffffffffffffffffff021916908373ffffffffffffffffffffffffffffffffffffffff1602179055506102008201518160100160006101000a81548173ffffffffffffffffffffffffffffffffffffffff021916908373ffffffffffffffffffffffffffffffffffffffff16021790555090505061300e614224565b600b54816000018181525050600b5481602001818152505080601060008d8152602001908152602001600020600082015181600001556020820151816001015560408201518160020155606082015181600301559050507f67e82eaa375365af2a34845a94a77c29f7a9f3fa2faa58fdd182bffb7972981e8b6000808d8d8d8d8d8d60006040516130a89a99989796959493929190614ec3565b60405180910390a16001600a5401600a819055507f835d449b8888c1a238c64933efc80d07a95ec5b0327e3fe1686e523f75b305ca8b6040516130eb9190614ea8565b60405180910390a15050505050505050505050565b6000806000806000606060006060806000613119614422565b600e60008d8152602001908152602001600020604051806101c0016040529081600082018054600181600116156101000203166002900480601f0160208091040260200160405190810160405280929190818152602001828054600181600116156101000203166002900480156131d15780601f106131a6576101008083540402835291602001916131d1565b820191906000526020600020905b8154815290600101906020018083116131b457829003601f168201915b50505050508152602001600182018054600181600116156101000203166002900480601f0160208091040260200160405190810160405280929190818152602001828054600181600116156101000203166002900480156132735780601f1061324857610100808354040283529160200191613273565b820191906000526020600020905b81548152906001019060200180831161325657829003601f168201915b50505050508152602001600282015481526020016003820160009054906101000a900473ffffffffffffffffffffffffffffffffffffffff1673ffffffffffffffffffffffffffffffffffffffff1673ffffffffffffffffffffffffffffffffffffffff1681526020016003820160149054906101000a900460ff16600a8111156132fa57fe5b600a81111561330557fe5b8152602001600482015481526020016005820160009054906101000a900473ffffffffffffffffffffffffffffffffffffffff1673ffffffffffffffffffffffffffffffffffffffff1673ffffffffffffffffffffffffffffffffffffffff168152602001600682018054806020026020016040519081016040528092919081815260200182805480156133b857602002820191906000526020600020905b8154815260200190600101908083116133a4575b50505050508152602001600782015481526020016008820160009054906101000a900473ffffffffffffffffffffffffffffffffffffffff1673ffffffffffffffffffffffffffffffffffffffff1673ffffffffffffffffffffffffffffffffffffffff1681526020016009820160009054906101000a900473ffffffffffffffffffffffffffffffffffffffff1673ffffffffffffffffffffffffffffffffffffffff1673ffffffffffffffffffffffffffffffffffffffff168152602001600a8201548152602001600b82018054806020026020016040519081016040528092919081815260200182805480156134d057602002820191906000526020600020905b8154815260200190600101908083116134bc575b50505050508152602001600c820180548060200260200160405190810160405280929190818152602001828054801561352857602002820191906000526020600020905b815481526020019060010190808311613514575b50505050508152505090508060a0015181604001518261012001518360c00151846101400151856020015186608001518760e001518861018001518961010001518494508292508191509a509a509a509a509a509a509a509a509a509a50509193959799509193959799565b600f60205281600052604060002081815481106135ad57fe5b90600052602060002090600d020160009150915050806000018054600181600116156101000203166002900480601f01602080910402602001604051908101604052809291908181526020018280546001816001161561010002031660029004801561365a5780601f1061362f5761010080835404028352916020019161365a565b820191906000526020600020905b81548152906001019060200180831161363d57829003601f168201915b505050505090806001018054600181600116156101000203166002900480601f0160208091040260200160405190810160405280929190818152602001828054600181600116156101000203166002900480156136f85780601f106136cd576101008083540402835291602001916136f8565b820191906000526020600020905b8154815290600101906020018083116136db57829003601f168201915b5050505050908060020154908060030160009054906101000a900473ffffffffffffffffffffffffffffffffffffffff16908060030160149054906101000a900460ff16908060040154908060050160009054906101000a900473ffffffffffffffffffffffffffffffffffffffff16908060070154908060080160009054906101000a900473ffffffffffffffffffffffffffffffffffffffff16908060090160009054906101000a900473ffffffffffffffffffffffffffffffffffffffff169080600a015490508b565b6012602052816000526040600020602052806000526040600020600091509150505481565b6137f3336123f6565b6137fc57600080fd5b816008600a81111561380a57fe5b600e600083815260200190815260200160002060030160149054906101000a900460ff16600a81111561383957fe5b1461384357600080fd5b600e600084815260200190815260200160002060080160009054906101000a900473ffffffffffffffffffffffffffffffffffffffff168073ffffffffffffffffffffffffffffffffffffffff163373ffffffffffffffffffffffffffffffffffffffff16146138b257600080fd5b82600e6000868152602001908152602001600020600a01819055506009600e600086815260200190815260200160002060030160146101000a81548160ff0219169083600a81111561390057fe5b02179055507f02fc3a44c57d1519d525e4603eee1aa9fd4633cc268319f1e22f6cdfee0aec2b844260008660008060405161394096959493929190615098565b60405180910390a17f25727bef8a186dd95a062151451f2d651551b53124c18208d7653b1217ae31ba846040516139779190614ea8565b60405180910390a150505050565b61398e336123f6565b61399757600080fd5b816005600a8111156139a557fe5b600e600083815260200190815260200160002060030160149054906101000a900460ff16600a8111156139d457fe5b146139de57600080fd5b600e600084815260200190815260200160002060030160009054906101000a900473ffffffffffffffffffffffffffffffffffffffff168073ffffffffffffffffffffffffffffffffffffffff163373ffffffffffffffffffffffffffffffffffffffff1614613a4d57600080fd5b6006600e600086815260200190815260200160002060030160146101000a81548160ff0219169083600a811115613a8057fe5b0217905550600f6000848152602001908152602001600020600e60008681526020019081526020016000209080600181540180825580915050906001820390600052602060002090600d02016000909192909190915060008201816000019080546001816001161561010002031660029004613afd929190614349565b5060018201816001019080546001816001161561010002031660029004613b25929190614349565b50600282015481600201556003820160009054906101000a900473ffffffffffffffffffffffffffffffffffffffff168160030160006101000a81548173ffffffffffffffffffffffffffffffffffffffff021916908373ffffffffffffffffffffffffffffffffffffffff1602179055506003820160149054906101000a900460ff168160030160146101000a81548160ff0219169083600a811115613bc857fe5b0217905550600482015481600401556005820160009054906101000a900473ffffffffffffffffffffffffffffffffffffffff168160050160006101000a81548173ffffffffffffffffffffffffffffffffffffffff021916908373ffffffffffffffffffffffffffffffffffffffff1602179055506006820181600601908054613c549291906143d0565b50600782015481600701556008820160009054906101000a900473ffffffffffffffffffffffffffffffffffffffff168160080160006101000a81548173ffffffffffffffffffffffffffffffffffffffff021916908373ffffffffffffffffffffffffffffffffffffffff1602179055506009820160009054906101000a900473ffffffffffffffffffffffffffffffffffffffff168160090160006101000a81548173ffffffffffffffffffffffffffffffffffffffff021916908373ffffffffffffffffffffffffffffffffffffffff160217905550600a82015481600a0155600b820181600b01908054613d4d9291906143d0565b50600c820181600c01908054613d649291906143d0565b505050504360106000868152602001908152602001600020600301819055507fd387ba7c66ff37ae33b5cbb19fe94bcbfe666ea31635889fba1abc7198c2f1bd84604051613db29190614ea8565b60405180910390a150505050565b60005481565b613dcf81614026565b50565b60008073ffffffffffffffffffffffffffffffffffffffff168273ffffffffffffffffffffffffffffffffffffffff161415613e0d57600080fd5b8260000160008373ffffffffffffffffffffffffffffffffffffffff1673ffffffffffffffffffffffffffffffffffffffff16815260200190815260200160002060009054906101000a900460ff16905092915050565b613e7881600161408090919063ffffffff16565b8073ffffffffffffffffffffffffffffffffffffffff167fa9f13e94f3f7dbf69ac8405e3aa6f43a6f162984687d099c7a5cd9b602552cc260405160405180910390a250565b613ed281600661408090919063ffffffff16565b8073ffffffffffffffffffffffffffffffffffffffff167f28b26e7a3d20aedbc5f8f2ebf7da671c0491723a2b78f47a097b0e46dee0714260405160405180910390a250565b613f2c81600461412c90919063ffffffff16565b8073ffffffffffffffffffffffffffffffffffffffff167f2fed5abf6a80d6dfe30b4895481b2fc5d7dce5f8f7b931832f4a2947d5040c7f60405160405180910390a250565b613f8681600461408090919063ffffffff16565b8073ffffffffffffffffffffffffffffffffffffffff167f561138658ca49a8540dc70dcfe64c9026c1c5b9344642242dd6562970f9c127860405160405180910390a250565b613fe081600161412c90919063ffffffff16565b8073ffffffffffffffffffffffffffffffffffffffff167f278a641d7aa9abcb166cd13a30fc6d7f21034d4c003ce509a84214e11faa77c060405160405180910390a250565b61403a81600661412c90919063ffffffff16565b8073ffffffffffffffffffffffffffffffffffffffff167fe3f5ed5f263f1f01764a96edfc7d025f511ec5f7d180e8816908b78bcf74f09860405160405180910390a250565b600073ffffffffffffffffffffffffffffffffffffffff168173ffffffffffffffffffffffffffffffffffffffff1614156140ba57600080fd5b6140c48282613dd2565b156140ce57600080fd5b60018260000160008373ffffffffffffffffffffffffffffffffffffffff1673ffffffffffffffffffffffffffffffffffffffff16815260200190815260200160002060006101000a81548160ff0219169083151502179055505050565b600073ffffffffffffffffffffffffffffffffffffffff168173ffffffffffffffffffffffffffffffffffffffff16141561416657600080fd5b6141708282613dd2565b61417957600080fd5b60008260000160008373ffffffffffffffffffffffffffffffffffffffff1673ffffffffffffffffffffffffffffffffffffffff16815260200190815260200160002060006101000a81548160ff0219169083151502179055505050565b828054828255906000526020600020908101928215614213579160200282015b828111156142125782518255916020019190600101906141f7565b5b50905061422091906145c1565b5090565b6040518060800160405280600081526020016000815260200160008152602001600081525090565b604051806102200160405280600081526020016000815260200160008152602001600073ffffffffffffffffffffffffffffffffffffffff168152602001600073ffffffffffffffffffffffffffffffffffffffff168152602001606081526020016060815260200160608152602001600081526020016000815260200160008152602001606081526020016000600a8111156142e557fe5b815260200160608152602001600073ffffffffffffffffffffffffffffffffffffffff168152602001600073ffffffffffffffffffffffffffffffffffffffff168152602001600073ffffffffffffffffffffffffffffffffffffffff1681525090565b828054600181600116156101000203166002900490600052602060002090601f016020900481019282601f1061438257805485556143bf565b828001600101855582156143bf57600052602060002091601f016020900482015b828111156143be5782548255916001019190600101906143a3565b5b5090506143cc91906145c1565b5090565b8280548282559060005260206000209081019282156144115760005260206000209182015b828111156144105782548255916001019190600101906143f5565b5b50905061441e91906145c1565b5090565b604051806101c00160405280606081526020016060815260200160008152602001600073ffffffffffffffffffffffffffffffffffffffff1681526020016000600a81111561446d57fe5b815260200160008152602001600073ffffffffffffffffffffffffffffffffffffffff1681526020016060815260200160008152602001600073ffffffffffffffffffffffffffffffffffffffff168152602001600073ffffffffffffffffffffffffffffffffffffffff1681526020016000815260200160608152602001606081525090565b828054600181600116156101000203166002900490600052602060002090601f016020900481019282601f1061453557805160ff1916838001178555614563565b82800160010185558215614563579182015b82811115614562578251825591602001919060010190614547565b5b50905061457091906145c1565b5090565b8280548282559060005260206000209081019282156145b0579160200282015b828111156145af578251825591602001919060010190614594565b5b5090506145bd91906145c1565b5090565b6145e391905b808211156145df5760008160009055506001016145c7565b5090565b90565b6000813590506145f58161572d565b92915050565b600082601f83011261460c57600080fd5b813561461f61461a826154a6565b615479565b9150818183526020840193506020810190508385602084028201111561464457600080fd5b60005b83811015614674578161465a88826146d2565b845260208401935060208301925050600181019050614647565b5050505092915050565b600082601f83011261468f57600080fd5b81356146a261469d826154ce565b615479565b915080825260208301602083018583830111156146be57600080fd5b6146c9838284615658565b50505092915050565b6000813590506146e181615744565b92915050565b6000602082840312156146f957600080fd5b6000614707848285016145e6565b91505092915050565b6000806040838503121561472357600080fd5b6000614731858286016145e6565b9250506020614742858286016145e6565b9150509250929050565b6000806040838503121561475f57600080fd5b600061476d858286016145e6565b925050602061477e858286016146d2565b9150509250929050565b6000806000806080858703121561479e57600080fd5b600085013567ffffffffffffffff8111156147b857600080fd5b6147c4878288016145fb565b94505060206147d5878288016146d2565b935050604085013567ffffffffffffffff8111156147f257600080fd5b6147fe878288016145fb565b925050606085013567ffffffffffffffff81111561481b57600080fd5b614827878288016145fb565b91505092959194509250565b60006020828403121561484557600080fd5b6000614853848285016146d2565b91505092915050565b60008060006060848603121561487157600080fd5b600061487f868287016146d2565b9350506020614890868287016145e6565b92505060406148a1868287016146d2565b9150509250925092565b60008060008060008060c087890312156148c457600080fd5b60006148d289828a016146d2565b965050602087013567ffffffffffffffff8111156148ef57600080fd5b6148fb89828a016145fb565b955050604061490c89828a016146d2565b945050606061491d89828a016145e6565b935050608087013567ffffffffffffffff81111561493a57600080fd5b61494689828a0161467e565b92505060a087013567ffffffffffffffff81111561496357600080fd5b61496f89828a016145fb565b9150509295509295509295565b600080600080600080600060e0888a03121561499757600080fd5b60006149a58a828b016146d2565b975050602088013567ffffffffffffffff8111156149c257600080fd5b6149ce8a828b0161467e565b965050604088013567ffffffffffffffff8111156149eb57600080fd5b6149f78a828b0161467e565b955050606088013567ffffffffffffffff811115614a1457600080fd5b614a208a828b0161467e565b945050608088013567ffffffffffffffff811115614a3d57600080fd5b614a498a828b0161467e565b93505060a0614a5a8a828b016146d2565b92505060c088013567ffffffffffffffff811115614a7757600080fd5b614a838a828b0161467e565b91505092959891949750929550565b60008060408385031215614aa557600080fd5b6000614ab3858286016146d2565b9250506020614ac4858286016146d2565b9150509250929050565b600080600060608486031215614ae357600080fd5b6000614af1868287016146d2565b9350506020614b02868287016146d2565b9250506040614b13868287016145e6565b9150509250925092565b6000614b298383614d0c565b60208301905092915050565b614b3e816155fe565b82525050565b614b55614b50826155a3565b6156b4565b82525050565b614b6481615591565b82525050565b6000614b758261551f565b614b7f8185615565565b9350614b8a836154fa565b8060005b83811015614bbb578151614ba28882614b1d565b9750614bad8361554b565b925050600181019050614b8e565b5085935050505092915050565b6000614bd38261552a565b614bdd8185615565565b9350614be88361550a565b8060005b83811015614c2057614bfd826156e2565b614c078882614b1d565b9750614c1283615558565b925050600181019050614bec565b5085935050505092915050565b614c36816155b5565b82525050565b614c4581615610565b82525050565b614c5481615622565b82525050565b6000614c6582615540565b614c6f8185615576565b9350614c7f818560208601615667565b614c88816156f5565b840191505092915050565b6000614c9e82615535565b614ca88185615576565b9350614cb8818560208601615667565b614cc1816156f5565b840191505092915050565b6000614cd9600483615576565b91507f6e756c6c000000000000000000000000000000000000000000000000000000006000830152602082019050919050565b614d15816155f4565b82525050565b614d24816155f4565b82525050565b614d3b614d36826155f4565b6156d8565b82525050565b6000614d4d8285614b44565b601482019150614d5d8284614d2a565b6020820191508190509392505050565b6000602082019050614d826000830184614b5b565b92915050565b60006060820190508181036000830152614da28186614bc8565b90508181036020830152614db68185614bc8565b90508181036040830152614dca8184614bc8565b9050949350505050565b6000602082019050614de96000830184614c2d565b92915050565b6000610160820190508181036000830152614e0a818e614c93565b90508181036020830152614e1e818d614c93565b9050614e2d604083018c614d1b565b614e3a606083018b614b5b565b614e47608083018a614c3c565b614e5460a0830189614d1b565b614e6160c0830188614b5b565b614e6e60e0830187614d1b565b614e7c610100830186614b5b565b614e8a610120830185614b5b565b614e98610140830184614d1b565b9c9b505050505050505050505050565b6000602082019050614ebd6000830184614d1b565b92915050565b600061014082019050614ed9600083018d614d1b565b614ee6602083018c614c4b565b614ef3604083018b614b35565b8181036060830152614f05818a614c5a565b90508181036080830152614f198189614c5a565b905081810360a0830152614f2d8188614c5a565b905081810360c0830152614f418187614c5a565b9050614f5060e0830186614d1b565b818103610100830152614f638185614c5a565b9050614f73610120830184614c4b565b9b9a5050505050505050505050565b600061014082019050614f986000830188614d1b565b614fa56020830187614c4b565b614fb26040830186614b35565b8181036060830152614fc381614ccc565b90508181036080830152614fd681614ccc565b905081810360a0830152614fe981614ccc565b905081810360c0830152614ffc81614ccc565b905061500b60e0830185614c4b565b81810361010083015261501d81614ccc565b905061502d610120830184614d1b565b9695505050505050565b600060c08201905061504c6000830189614d1b565b6150596020830188614d1b565b6150666040830187614b35565b6150736060830186614c4b565b6150806080830185614b35565b61508d60a0830184614c4b565b979650505050505050565b600060c0820190506150ad6000830189614d1b565b6150ba6020830188614d1b565b6150c76040830187614b35565b6150d46060830186614d1b565b6150e16080830185614b35565b6150ee60a0830184614c4b565b979650505050505050565b60006101408201905061510f600083018d614d1b565b61511c602083018c614d1b565b615129604083018b614b5b565b615136606083018a614b5b565b6151436080830189614b5b565b81810360a08301526151558188614c5a565b905061516460c0830187614c3c565b81810360e08301526151768186614b6a565b905081810361010083015261518b8185614b6a565b905061519b610120830184614d1b565b9b9a5050505050505050505050565b6000610120820190506151c0600083018c614d1b565b6151cd602083018b614d1b565b6151da604083018a614b5b565b6151e76060830189614b5b565b81810360808301526151f98188614c5a565b905081810360a083015261520d8187614c5a565b905081810360c08301526152218186614c5a565b905061523060e0830185614d1b565b61523e610100830184614d1b565b9a9950505050505050505050565b600060c0820190506152616000830189614d1b565b61526e6020830188614d1b565b61527b6040830187614b5b565b6152886060830186614c4b565b6152956080830185614b35565b6152a260a0830184614c4b565b979650505050505050565b6000610140820190506152c36000830189614d1b565b6152d06020830188614d1b565b6152dd6040830187614b5b565b81810360608301526152ef8186614c5a565b9050818103608083015261530281614ccc565b905081810360a083015261531581614ccc565b905081810360c083015261532881614ccc565b905061533760e0830185614c4b565b81810361010083015261534981614ccc565b9050615359610120830184614d1b565b979650505050505050565b600060c0820190506153796000830189614d1b565b6153866020830188614d1b565b6153936040830187614b5b565b6153a06060830186614d1b565b6153ad6080830185614b5b565b6153ba60a0830184614d1b565b979650505050505050565b600060e0820190506153da600083018a614d1b565b6153e76020830189614d1b565b6153f46040830188614d1b565b6154016060830187614c3c565b61540e6080830186614b5b565b61541b60a0830185614b5b565b61542860c0830184614b5b565b98975050505050505050565b60006080820190506154496000830187614d1b565b6154566020830186614d1b565b6154636040830185614d1b565b6154706060830184614d1b565b95945050505050565b6000604051905081810181811067ffffffffffffffff8211171561549c57600080fd5b8060405250919050565b600067ffffffffffffffff8211156154bd57600080fd5b602082029050602081019050919050565b600067ffffffffffffffff8211156154e557600080fd5b601f19601f8301169050602081019050919050565b6000819050602082019050919050565b60008190508160005260206000209050919050565b600081519050919050565b600081549050919050565b600081519050919050565b600081519050919050565b6000602082019050919050565b6000600182019050919050565b600082825260208201905092915050565b600082825260208201905092915050565b6000819050919050565b600061559c826155d4565b9050919050565b60006155ae826155d4565b9050919050565b60008115159050919050565b60008190506155cf82615720565b919050565b600073ffffffffffffffffffffffffffffffffffffffff82169050919050565b6000819050919050565b600061560982615634565b9050919050565b600061561b826155c1565b9050919050565b600061562d826155f4565b9050919050565b600061563f82615646565b9050919050565b6000615651826155d4565b9050919050565b82818337600083830152505050565b60005b8381101561568557808201518184015260208101905061566a565b83811115615694576000848401525b50505050565b60006156ad6156a883615713565b615587565b9050919050565b60006156bf826156c6565b9050919050565b60006156d182615706565b9050919050565b6000819050919050565b60006156ee825461569a565b9050919050565b6000601f19601f8301169050919050565b60008160601b9050919050565b60008160001c9050919050565b600b811061572a57fe5b50565b61573681615591565b811461574157600080fd5b50565b61574d816155f4565b811461575857600080fd5b5056fea365627a7a72315820c7f5d49d3538ae5d5ae0ade100b725a8efef6b8d7607387d3eee5bd6946f57ab6c6578706572696d656e74616cf564736f6c63430005100040",
  "source": " // SPDX-License-Identifier: GPL-3.0\r\n pragma experimental ABIEncoderV2;\r\npragma solidity >=0.4.20;\r\n\r\n //import \"../TexOwner.sol\";\r\n \r\n \r\n contract AdminUser{\r\n     \r\n         //add fabric treatementt denim treatment like stone washing, sand washing, enzyme wash, acid wash, sandblasting, river wash, whiskers and vintage look.\r\n        address public lastAccess;\r\n        address public owner;\r\n        uint public creationTime;\r\n        bytes32 a;\r\n        //mapping (uint=> items) itemlist;\r\n       \r\n       \r\n        mapping(address => User) private usersdetail;\r\n        address[] private userindex;\r\n        uint count = userindex.length;\r\n        mapping(address => uint8) authorizedCaller;\r\n\r\n        \r\n        \r\n        constructor() public {\r\n            owner = msg.sender;\r\n              creationTime = block.timestamp;\r\n            authorizedCaller[msg.sender] = 1;\r\n            emit AuthorizedCaller(msg.sender);\r\n         }\r\n \r\n         struct User{\r\n            string us_name;\r\n            string password;\r\n            address Createdby;\r\n            uint creationTime;\r\n            uint index;\r\n            string email;\r\n            string location;\r\n            uint role;\r\n    \r\n         }\r\n         struct Userroles{\r\n             uint us_roles;\r\n         }\r\n         uint256 token;\r\n         mapping(address=>uint) public us_role;\r\n         mapping(bytes32 => User) idmap;\r\n         \r\n        \r\n\r\n        event OwnershipRenounced(address indexed previousOwner);\r\n        event OwnershipTransferred(address indexed previousOwner, address indexed newOwner);\r\n        event AuthorizedCaller(address caller);\r\n        event DeAuthorizedCaller(address caller);\r\n        event LogNewUser   (address indexed _userAddress, uint index,string  name, string password,  string email, uint userrole,  bytes32 _hash);\r\n        event LogUpdateUser(address indexed _userAddress, uint index,  string email, string location, string password);\r\n        event ProduceByFarmer(uint upc);         //1\r\n\r\n        \r\n        modifier onlyAuthCaller(){\r\n            lastAccess = msg.sender;\r\n            require(authorizedCaller[msg.sender] == 1);\r\n            _;\r\n        }\r\n        \r\n        modifier Onlyowner(){\r\n            require( msg.sender==owner);\r\n            _;\r\n        }\r\n        function transferOwnership( address newOwner) public Onlyowner{\r\n            require(newOwner != address(0));\r\n            emit OwnershipTransferred(owner, newOwner);\r\n            owner = newOwner;\r\n        }\r\n        \r\n        function renounceOwnership() public {\r\n            emit OwnershipRenounced(owner);\r\n            owner = address(0);\r\n        }\r\n        \r\n         function isOwner() public view returns (bool) {\r\n            return msg.sender == owner;\r\n        }\r\n         function isUser(address _userAddress)public view  returns(bool isIndeed) {\r\n            if(userindex.length == 0) return false;\r\n            return (userindex[usersdetail[_userAddress].index] == _userAddress);\r\n      }\r\n         \r\n         function authorizeCaller(address _caller) public Onlyowner returns(bool) \r\n        {\r\n            authorizedCaller[_caller] = 1;\r\n            emit AuthorizedCaller(_caller);\r\n            return true;\r\n        }\r\n        \r\n        /* deauthorize caller */\r\n        function deAuthorizeCaller(address _caller) public Onlyowner returns(bool) \r\n        {\r\n            authorizedCaller[_caller] = 0;\r\n            emit DeAuthorizedCaller(_caller);\r\n            return true;\r\n        }\r\n        \r\n     \r\n        function setUser(address _userAddress, string memory us_name, string memory password, string memory  email, string memory location,uint   role) public Onlyowner returns(uint index) {\r\n            //require(authorizedCaller[msg.sender]==1);\r\n            //authorizedCaller[msg.sender] = 0;\r\n            //require(authorizedCaller[msg.sender]==0);\r\n            \r\n            require(isUser(_userAddress)==false); \r\n            \r\n            usersdetail[_userAddress].Createdby = msg.sender;\r\n            usersdetail[_userAddress].creationTime= block.timestamp;\r\n            usersdetail[_userAddress].us_name=us_name;\r\n            usersdetail[_userAddress].password=password;\r\n            usersdetail[_userAddress].email=email;\r\n            usersdetail[_userAddress].location=location;\r\n            usersdetail[_userAddress].role=role;\r\n            us_role[_userAddress]= role;\r\n            \r\n            userindex.push(_userAddress);\r\n            usersdetail[_userAddress].index = userindex.length-1;\r\n            a= sha256(abi.encodePacked(_userAddress,us_name,location,password,email,role));\r\n            idmap[a]=usersdetail[_userAddress];\r\n            \r\n           emit  LogNewUser(\r\n            _userAddress, \r\n            usersdetail[_userAddress].index, \r\n            us_name,\r\n            password,\r\n            email, \r\n            us_role[_userAddress],\r\n            a\r\n            );\r\n            \r\n             return (userindex.length-1);\r\n        }\r\n         function getUserCount() public view returns(uint index) {\r\n            return userindex.length;\r\n            }\r\n            \r\n            \r\n        //  function getUser(address _userAddress) public  returns ( bytes32  a,\r\n        //                                                             string memory us_name,\r\n        //                                                               string memory password,\r\n        //                                                               string memory  email,\r\n        //                                                               address _Createdby,\r\n        //                                                               uint  role)\r\n        //     {\r\n        //         require(isUser(_userAddress)==true);\r\n                \r\n        //         User memory details = usersdetail[_userAddress];\r\n                \r\n        //         a= sha256(abi.encodePacked(details.us_name, details.password,details.email, details.Createdby,details.creationTime));\r\n                 \r\n        //         idmap[a]=usersdetail[_userAddress];\r\n        //         return (a,details.us_name, details.password,details.email,details.Createdby,us_role[_userAddress]);\r\n        //     }   \r\n            \r\n        function getdata(bytes32 transactionhash) public view returns(User memory used){\r\n             return (idmap[transactionhash]);\r\n            \r\n        }\r\n        function updateUser(address _userAddress, string memory email, string memory location, string memory password) public returns(bool success) {\r\n            \r\n            require(isUser(_userAddress)==true) ; \r\n            usersdetail[_userAddress].email = email;\r\n            usersdetail[_userAddress].location = location;\r\n            usersdetail[_userAddress].password = password;\r\n            emit LogUpdateUser(\r\n            _userAddress, \r\n            usersdetail[_userAddress].index,\r\n            email,\r\n            location,\r\n            password\r\n            );\r\n            return true;\r\n        }   \r\n \r\n     \r\n }\r\n    library Roles {\r\n      struct Role {\r\n        mapping (address => bool) bearer;\r\n      }\r\n    \r\n      /**\r\n       * @dev give an account access to this role\r\n       */\r\n      function add(Role storage role, address _userAddress) internal {\r\n        require(_userAddress != address(0));\r\n        require(!has(role, _userAddress));\r\n    \r\n        role.bearer[_userAddress] = true;\r\n      }\r\n    \r\n      /**\r\n       * @dev remove an account's access to this role\r\n       */\r\n      function remove(Role storage role, address _userAddress) internal {\r\n        require(_userAddress != address(0));\r\n        require(has(role, _userAddress));\r\n    \r\n        role.bearer[_userAddress] = false;\r\n      }\r\n    \r\n      /**\r\n       * @dev check if an account has this role\r\n       * @return bool\r\n       */\r\n      function has(Role storage role, address _userAddress)\r\n        internal\r\n        view\r\n        returns (bool)\r\n      {\r\n        require(_userAddress != address(0));\r\n        return role.bearer[_userAddress];\r\n      }\r\n    }\r\n     \r\n     \r\n contract Supplier{\r\n     \r\n      using Roles for Roles.Role;\r\n    uint public creationTime;\r\n      // Define 2 events, one for Adding, and other for Removing\r\n      event SupplierAdded(address indexed account);\r\n      event SupplierRemoved(address indexed account);\r\n    \r\n      // Define a struct 'farmers' by inheriting from 'Roles' library, struct Role\r\n      Roles.Role private suppliers;\r\n    \r\n      // In the constructor make the address that deploys this contract the 1st farmer\r\n      constructor() public {\r\n        _addSupplier(msg.sender);\r\n        creationTime = block.timestamp;\r\n    \r\n      }\r\n    \r\n      // Define a modifier that checks to see if msg.sender has the appropriate role\r\n      modifier onlySupplier() {\r\n        require(isSupplier(msg.sender));\r\n        _;\r\n      }\r\n    \r\n      // Define a function 'isFarmer' to check this role\r\n      function isSupplier(address _userAddress) public view returns (bool) {\r\n        return suppliers.has(_userAddress);\r\n      }\r\n    \r\n      // Define a function 'addFarmer' that adds this role\r\n      function addSupplier(address _userAddress) public onlySupplier {\r\n        _addSupplier(_userAddress);\r\n      }\r\n    \r\n      // Define a function 'renounceFarmer' to renounce this role\r\n      function renounceSupplier() public {\r\n        _removeSupplier(msg.sender);\r\n      }\r\n    \r\n      // Define an internal function '_addFarmer' to add this role, called by 'addFarmer'\r\n      function _addSupplier(address _userAddress) internal {\r\n        suppliers.add(_userAddress);\r\n        emit SupplierAdded(_userAddress);\r\n      }\r\n    \r\n      // Define an internal function '_removeFarmer' to remove this role, called by 'removeFarmer'\r\n      function _removeSupplier(address _userAddress) internal {\r\n        suppliers.remove(_userAddress);\r\n        emit SupplierRemoved(_userAddress);\r\n      }\r\n\r\n }\r\n         contract Manufacturer {\r\n             \r\n             \r\n          using Roles for Roles.Role;\r\n          \r\n          // Define 2 events, one for Adding, and other for Removing\r\n          event ManufacturerAdded(address indexed _userAddress);\r\n          event ManufacturerRemoved(address indexed _userAddress);\r\n          address manuowner;\r\n          bytes32 hash;\r\n         \r\n          \r\n          // Define a struct 'distributors' by inheriting from 'Roles' library, struct Role\r\n          Roles.Role private distributors;\r\n        event LogNewUser   (address indexed _userAddress, uint index);\r\n\r\n          address[] private userindex;\r\n    \r\n          // In the constructor make the address that deploys this contract the 1st distributor\r\n          constructor() public {\r\n              manuowner =msg.sender;\r\n            _addDistributor(msg.sender);\r\n          }\r\n        modifier onlyManufacturer(){\r\n            require(msg.sender == manuowner);\r\n            _;\r\n        }\r\n          // Define a modifier that checks to see if msg.sender has the appropriate role\r\n          modifier onlyDistributor() {\r\n            require(isDistributor(msg.sender));\r\n            _;\r\n          }\r\n        \r\n          // Define a function 'isDistributor' to check this role\r\n          function isDistributor(address account) public view returns (bool) {\r\n              \r\n            return distributors.has(account);\r\n          }\r\n          \r\n    //       function isMerch(address _userAddress)public view  returns(bool isIndeed) {\r\n    //         if(userindex.length == 0) return false;\r\n    //         return (userindex[merch[_userAddress].index] == _userAddress);\r\n    //   }\r\n    //   function isEmp(address _userAddress)public view  returns(bool isIndeed) {\r\n    //         if(userindex.length == 0) return false;\r\n    //         return (userindex[emp[_userAddress].index] == _userAddress);\r\n    //   }\r\n      \r\n    //     function addMerchandizer(address _userAddress)public onlyManufacturer {\r\n           \r\n    //       require(isMerch(_userAddress)==false);\r\n           \r\n    //         merch[_userAddress].Createdby=msg.sender;\r\n           \r\n    //         merch[_userAddress].merch_id=merch_id;\r\n    //         merch_id =merch_id+1;\r\n    //         map[merch_id]=_userAddress;\r\n    //         userindex.push(_userAddress);\r\n    //                 emit LogNewUser   (_userAddress,merch_id );\r\n\r\n    //         merch[_userAddress].index = userindex.length-1;\r\n           \r\n    //     }\r\n    //      function getMerch(uint id) public view returns(address ){\r\n    //          return (map[id]);\r\n            \r\n    //     }\r\n        \r\n    //     function addEmployee(address _userAddress )public onlyManufacturer {\r\n           \r\n    //       require(isEmp(_userAddress)==false);\r\n    //         hash =  sha256(abi.encodePacked(_userAddress,emp_id));\r\n    //         emp[_userAddress].Createdby=msg.sender;\r\n            \r\n    //         emp[_userAddress].emp_id=emp_id;\r\n    //         empmap[hash]=emp[_userAddress];\r\n    //         emp_id =emp_id+1;\r\n    //          emit LogNewUser   (_userAddress,emp_id);\r\n    //         userindex.push(_userAddress);\r\n    //         emp[_userAddress].index = userindex.length-1;\r\n            \r\n    //     }\r\n        \r\n    // Define a function 'addDistributor' that adds this role\r\n          function addDistributor(address account) public onlyDistributor {\r\n            _addDistributor(account);\r\n          }\r\n        \r\n          // Define a function 'renounceDistributor' to renounce this role\r\n          function renounceDistributor() public {\r\n            _removeDistributor(msg.sender);\r\n          }\r\n        \r\n          // Define an internal function '_addDistributor' to add this role, called by 'addDistributor'\r\n          function _addDistributor(address account) internal {\r\n            distributors.add(account);\r\n            emit ManufacturerAdded(account);\r\n          }\r\n        \r\n          // Define an internal function '_removeDistributor' to remove this role, called by 'removeDistributor'\r\n          function _removeDistributor(address account) internal {\r\n            distributors.remove(account);\r\n            emit ManufacturerRemoved(account);\r\n          }\r\n        }\r\n   contract Brand {\r\n      using Roles for Roles.Role;\r\n      // Define 2 events, one for Adding, and other for Removing\r\n      event ConsumerAdded(address indexed account);\r\n      event ConsumerRemoved(address indexed account);\r\n    \r\n      // Define a struct 'consumers' by inheriting from 'Roles' library, struct Role\r\n      Roles.Role private consumers;\r\n      // In the constructor make the address that deploys this contract the 1st consumer\r\n      constructor() public {\r\n        //_addConstructor(msg.sender);\r\n        _addConsumer(msg.sender);\r\n      }\r\n    \r\n      // Define a modifier that checks to see if msg.sender has the appropriate role\r\n      modifier onlyBrand() {\r\n        require(isBrand(msg.sender));\r\n        _;\r\n      }\r\n    \r\n      // Define a function 'isConsumer' to check this role\r\n      function isBrand(address account) public view returns (bool) {\r\n        return consumers.has(account);\r\n      }\r\n    \r\n      // Define a function 'addConsumer' that adds this role\r\n      function addBrand(address account) public onlyBrand {\r\n        _addConsumer(account);\r\n      }\r\n    \r\n      // Define a function 'renounceConsumer' to renounce this role\r\n      function renounceConsumer(address account) public {\r\n        _removeConsumer(account);\r\n      }\r\n    \r\n      // Define an internal function '_addConsumer' to add this role, called by 'addConsumer'\r\n      function _addConsumer(address account) internal {\r\n        consumers.add(account);\r\n        emit ConsumerAdded(account);\r\n      }\r\n    \r\n      // Define an internal function '_removeConsumer' to remove this role, called by 'removeConsumer'\r\n      function _removeConsumer(address account) internal {\r\n        consumers.remove(account);\r\n        emit ConsumerRemoved(account);\r\n      }\r\n}      \r\n  contract Supplychain is Supplier, Manufacturer, Brand{\r\n           \r\n          // Define a variable called 'upc' for Universal Product Code (UPC),12 digit codes. \r\n        uint  upc;\r\n        uint productupc;\r\n        uint productsku;\r\n        \r\n        // Define a variable called 'sku' for Stock Keeping Unit (SKU),string of alpha and numeric,unique to the companies ,8 digit\r\n        uint  sku;\r\n        uint placeholder; // Block number place holder\r\n        address owner;\r\n        // Define a public mapping 'items' that maps the UPC to an Item.\r\n        mapping (uint => Item) items;\r\n        mapping (uint => Denim) products;\r\n        mapping (uint256 =>Denim[])  public idToProof;\r\n        \r\n         // Define a public mapping 'itemsHistory' that maps the UPC to an array of TxHash,\r\n        // that track its journey through the supply chain -- to be sent from DApp.\r\n        mapping (uint => Txblocks) itemsHistory;\r\n        mapping (address=>address[]) public merhmap;\r\n        mapping(address=>mapping(address=>uint)) public mechsupquantity;\r\n        // Define enum 'State' with the following values:\r\n        enum State\r\n        {\r\n        ProduceBySupplier,         // 0\r\n        ForSaleBySupplier,         // 1\r\n        PurchasedByManufacturer,  // 2\r\n        ShippedBySupplier,         // 3\r\n        ReceivedByManufacturer,   // 4\r\n        ProcessedByManufacturer,  // 5\r\n        PackagedByManufacturer,    // 6\r\n        ForSaleByManufacturer,    // 7\r\n        PurchasedByBrand,         // 8\r\n        ShippedByManufacturer,    // 9\r\n        ReceivedByBrand// 10\r\n        }\r\n       \r\n        struct Item {\r\n            uint    sku;                    // Stock Keeping Unit (SKU)\r\n            uint    upc;                    // Universal Product Code (UPC), generated by the Farmer, goes on the package, can be verified by the Consumer\r\n            uint creationTime;\r\n            address ownerID;                // Metamask-Ethereum address of the current owner as the product moves through 8 stages\r\n            address originsupplierID;         // Metamask-Ethereum address of the Farmer // ADDED PAYABLE\r\n            string  originsupplierName;         // Farmer Name\r\n            string  originsupplierLatitude;     // Farm Latitude\r\n            string  originsupplierLongitude;    // Farm Longitude\r\n            uint    productID;              // Product ID potentially a combination of upc + sku\r\n            uint    productPrice;           // Product Price\r\n            uint quantity;\r\n            string dye;// indigo\r\n            State   itemState;// Product State as represented in the enum above\r\n            string materialtype; \r\n            address merchandizerid;\r\n            address manufacturerID;          // Metamask-Ethereum address of the Distributor\r\n            address brandID;             // Metamask-Ethereum address of the Consumer // ADDED payable\r\n        }\r\n        \r\n        struct Denim {\r\n            string gramenttype;\r\n            string treatements;\r\n            uint productupc;\r\n            address ownerID;\r\n            State productstate;\r\n            uint productsku;\r\n            address brandID;\r\n            uint[] empID;\r\n            uint creationTime;\r\n            address manufacturerID;\r\n            address merchandizerid;\r\n            uint ShipmnetAgent;\r\n            uint[]  machine_id;\r\n            uint[] itemsUPC;\r\n\r\n        }\r\n\r\n       \r\n        struct Txblocks {\r\n            uint FTD; // blockfarmerToDistributor\r\n            uint RTC; // blockRetailerToConsumer\r\n            uint PM;//blockpurchsetoprocess\r\n            uint PPA;//blockprocesstopacakge\r\n          }\r\n          \r\n         State constant defaultState = State.ProduceBySupplier;\r\n        event LogProductDetails(uint[] _upc, uint[] _machineid, uint[] _employeeid);\r\n        event logNewItem   (uint _upc,uint upc, address employee, string  _originsupplierName, string  _originsupplierLatitude, string  _originsupplierLongitude,string  _materialtype, uint _price, string  _dye, uint256 hash );\r\n        event lognewPurchse   (uint _upc,uint time,   address _merch,uint _quantity, address originsupplierID, uint256 FTD);\r\n        event QuantityLesserThanRequired(uint upc);\r\n        event ProduceBySupplier(uint upc);         //1\r\n        event ForSaleBySupplier(uint upc); //2\r\n        event PurchasedByManufacturer(uint upc);  //3\r\n        event ShippedBySupplier(uint upc);         //4\r\n        event ReceivedByManufacturer(uint upc);   //5\r\n        event ProcessedByManufacturer(uint upc);  //6\r\n        event PackagedByManufacturer(uint upc);   //7\r\n        event ForSaleByManufacturer(uint upc);    //8\r\n        event PurchasedByBrand(uint upc);     //13\r\n        event ShippedByManufacturer(uint upc);    //10\r\n        event ReceivedByBrand(uint upc);     //13\r\n        \r\n        modifier forSaleBySupplier(uint _upc) {\r\n        require(items[_upc].itemState == State.ForSaleBySupplier);\r\n        _;\r\n        }\r\n        modifier producedBySupplier(uint _upc) {\r\n        require(items[_upc].itemState == State.ProduceBySupplier);\r\n        _;\r\n        }\r\n        modifier verifyCaller (address _userAddress) {\r\n        require(msg.sender == _userAddress);\r\n        _;\r\n        }\r\n        modifier purchasedByManufacturer(uint _upc) {\r\n        require(items[_upc].itemState == State.PurchasedByManufacturer);\r\n        _;\r\n        }\r\n        \r\n        modifier shippedBySupplier(uint _upc) {\r\n        require(items[_upc].itemState == State.ShippedBySupplier);\r\n        _;\r\n        }\r\n        \r\n        modifier receivedByManufacturer(uint _upc) {\r\n        require(items[_upc].itemState == State.ReceivedByManufacturer);\r\n        _;\r\n        }\r\n        \r\n        modifier processByManufacturer(uint _upc) {\r\n        require(products[_upc].productstate == State.ProcessedByManufacturer);\r\n        _;\r\n        }\r\n        \r\n        modifier packagedByManufacturer(uint _upc) {\r\n        require(products[_upc].productstate == State.PackagedByManufacturer);\r\n        _;\r\n        }\r\n        modifier forSaleByManufacturer(uint _upc) {\r\n        require(products[_upc].productstate  == State.ForSaleByManufacturer);\r\n        _;\r\n  }\r\n\r\n\r\n      modifier shippedByManufacturer(uint _upc) {\r\n        require(products[_upc].productstate  == State.ShippedByManufacturer);\r\n        _;\r\n      }\r\n    \r\n      \r\n      modifier purchasedByBrand(uint _upc) {\r\n        require(products[_upc].productstate  == State.PurchasedByBrand);\r\n        _;\r\n      }\r\n            constructor () public  {\r\n            owner=msg.sender;\r\n            sku = 1;\r\n            upc = 1;\r\n            productupc=1;\r\n            productsku=1;\r\n        }\r\n                   // allows you to convert an address into a payable address\r\n         \r\n        function itemBySupplier(uint _upc, string memory _originsupplierName, string memory _originsupplierLatitude, string memory _originsupplierLongitude,string memory _materialtype, uint _price, string memory _dye) public\r\n        onlySupplier() // check address belongs to farmerRole\r\n        {\r\n        \r\n        address manufacturerID; // Empty distributorID address\r\n        address brandID; // Empty consumerID address\r\n        \r\n        Item memory newProduce; // Create a new struct Item in memory\r\n        newProduce.sku = sku;  // Stock Keeping Unit (SKU)\r\n        newProduce.upc = _upc; // Universal Product Code (UPC), generated by the Farmer, goes on the package, can be verified by the Consumer\r\n        newProduce.ownerID = msg.sender;  // Metamask-Ethereum address of the current owner as the product moves through 8 stages\r\n        newProduce.originsupplierID = msg.sender; // Metamask-Ethereum address of the Farmer\r\n        newProduce.originsupplierName = _originsupplierName;  // Farmer Name\r\n        newProduce.originsupplierLatitude = _originsupplierLatitude; // Farm Latitude\r\n        newProduce.originsupplierLongitude = _originsupplierLongitude;  // Farm Longitude\r\n        newProduce.productID = _upc+sku;  // Product ID\r\n        newProduce.productPrice = _price;  // Product Price\r\n        newProduce.creationTime = block.timestamp;\r\n        newProduce.dye = _dye;\r\n        newProduce.materialtype = _materialtype;\r\n        newProduce.itemState = defaultState; // Product State as represented in the enum above\r\n        \r\n        newProduce.manufacturerID = manufacturerID; // Metamask-Ethereum address of the Distributor\r\n        newProduce.brandID = brandID; // Metamask-Ethereum address of the Consumer // ADDED payable\r\n        \r\n        items[_upc] = newProduce; // Add newProduce to items struct by upc\r\n         Txblocks memory txBlock; // create new txBlock struct\r\n        txBlock.FTD = placeholder; // assign placeholder values\r\n        txBlock.RTC = placeholder;\r\n        itemsHistory[_upc] = txBlock; // add txBlock to itemsHistory mapping by upc\r\n        \r\n           emit logNewItem   ( _upc, 0,address(0),_originsupplierName,   _originsupplierLatitude,  _originsupplierLongitude,  _materialtype, _price,  _dye,0);\r\n        \r\n        // Increment sku\r\n        sku = sku + 1;\r\n        \r\n        // Emit the appropriate event\r\n        emit ProduceBySupplier(_upc);\r\n        \r\n        \r\n        \r\n        }\r\n        \r\n        function sellItemBySupplier(uint _upc, uint _price) public\r\n        onlySupplier() // check msg.sender belongs to farmerRole\r\n        producedBySupplier(_upc) // check items state has been produced\r\n        verifyCaller(items[_upc].ownerID) // check msg.sender is owner\r\n        {\r\n        items[_upc].itemState = State.ForSaleBySupplier;\r\n        items[_upc].productPrice = _price;\r\n        emit ForSaleBySupplier(_upc);\r\n        }\r\n        \r\n        function purchaseItemByManufacturer(uint _upc, address _merchandizerId, uint _quantity) public  \r\n        onlyDistributor() // check msg.sender belongs to distributorRole\r\n        forSaleBySupplier(_upc) // check items state is for ForSaleByFarmer\r\n        {\r\n        // transfer funds from distributor to farmer\r\n        items[_upc].ownerID = msg.sender; // update owner\r\n        items[_upc].manufacturerID = msg.sender; // update distributor\r\n        items[_upc].quantity =_quantity;\r\n        items[_upc].itemState = State.PurchasedByManufacturer; // update state\r\n        \r\n        merhmap[_merchandizerId].push(items[_upc].originsupplierID);\r\n        mechsupquantity[_merchandizerId][items[_upc].originsupplierID]=_quantity;\r\n        itemsHistory[_upc].FTD = block.number; // add block number\r\n        // idToProof[items[_upc].FTD]=\"proof1\";\r\n        emit lognewPurchse   (_upc,block.timestamp, _merchandizerId, _quantity,items[_upc].originsupplierID,itemsHistory[_upc].FTD);\r\n        \r\n        emit PurchasedByManufacturer(_upc);\r\n        \r\n        \r\n        //0xAb8483F64d9C6d1EcF9b849Ae677dD3315835cb2\r\n        //0x4B20993Bc481177ec7E8f571ceCaE8A9e22C02db\r\n        //0x78731D3Ca6b7E34aC0F824c42a7cC18A495cabaB\r\n        //0x617F2E2fD72FD9D5503197092aC168c91465E7f2\r\n        }\r\n        \r\n        function shippedItemBySupplier(uint _upc) public \r\n        onlySupplier() // check msg.sender belongs to FarmerRole\r\n        purchasedByManufacturer(_upc)\r\n        verifyCaller(items[_upc].originsupplierID) // check msg.sender is originFarmID\r\n        {\r\n            // items[_upc].quantity =_quantity;\r\n        items[_upc].itemState = State.ShippedBySupplier; // update state\r\n        emit lognewPurchse(_upc,block.timestamp,address(0),0,address(0),0);\r\n        emit ShippedBySupplier(_upc);\r\n        }\r\n        \r\n        function receivedItemByManufacturer(uint _upc, uint quantity, address _merchandizerId) public\r\n        onlyDistributor() // check msg.sender belongs to DistributorRole\r\n        shippedBySupplier(_upc)\r\n        verifyCaller(items[_upc].ownerID) // check msg.sender is owner\r\n        {\r\n            if(mechsupquantity[_merchandizerId][items[_upc].originsupplierID]< quantity)\r\n            {\r\n                emit QuantityLesserThanRequired(quantity);\r\n                \r\n            }\r\n        items[_upc].itemState = State.ReceivedByManufacturer; // update state\r\n       mechsupquantity[_merchandizerId][items[_upc].originsupplierID]=quantity;\r\n\r\n        emit lognewPurchse(_upc,block.timestamp,address(0),0,address(0),0);\r\n        emit ReceivedByManufacturer(_upc);\r\n        }\r\n        \r\n        \r\n        function processedItemByManufacturer(uint _upc,uint[] memory _machine, uint _productupc, address _merchandizerId,string memory _treatements , uint[] memory _empaddress) public\r\n        onlyDistributor() // check msg.sender belongs to DistributorRole\r\n        receivedByManufacturer(_upc)\r\n        verifyCaller(items[_upc].ownerID) // check msg.sender is owner\r\n        {\r\n            address brandID;\r\n        Denim memory product;\r\n        product.brandID=brandID;\r\n        product.productupc=_productupc;\r\n        product.treatements=_treatements;\r\n        product.machine_id=_machine;\r\n        product.empID=_empaddress;\r\n        product.ownerID=msg.sender;\r\n        product.manufacturerID=msg.sender;\r\n        product.creationTime=block.timestamp;\r\n        product.merchandizerid = _merchandizerId;\r\n        products[_productupc]=product;\r\n        uint256 batchno= uint256(keccak256(abi.encodePacked(msg.sender, block.timestamp)));\r\n        \r\n        idToProof[batchno].push(product);\r\n\r\n        \r\n        itemsHistory[_productupc].PM = block.number; // add block number\r\n        items[_upc].itemState = State.ProcessedByManufacturer; // update state\r\n        products[_productupc].productstate= State.ProcessedByManufacturer;\r\n        emit logNewItem   ( _productupc, _upc, _merchandizerId,  _treatements,'null','null','null',0,'null',batchno);\r\n        product.productsku=product.productsku+1;\r\n\r\n        emit ProcessedByManufacturer(_productupc);\r\n        }\r\n        \r\n        function ProductDetails(uint[] memory _upc, uint _productupc,uint[] memory machineid, uint[] memory employeeid)\r\n        public {\r\n            products[_productupc].machine_id=machineid;\r\n        products[_productupc].empID=employeeid;\r\n        products[_productupc].itemsUPC=_upc;\r\n       emit LogProductDetails(products[_productupc].machine_id,products[_productupc].itemsUPC, products[_productupc].empID);\r\n        }\r\n        function packageItemByDistributor(uint _productupc,uint256 _batchno) public\r\n        onlyDistributor() // check msg.sender belongs to DistributorRole\r\n        processByManufacturer(_productupc)\r\n        verifyCaller(products[_productupc].ownerID) // check msg.sender is owner\r\n        {\r\n        \r\n        products[_productupc].productstate= State.PackagedByManufacturer;\r\n        idToProof[_batchno].push(  products[_productupc]);\r\n        itemsHistory[_productupc].PPA = block.number; // add block number\r\n        emit PackagedByManufacturer(_productupc);\r\n        }\r\n        \r\n        function sellItemByDistributor(uint _productupc,uint256 _batchno) public\r\n        onlyDistributor() // check msg.sender belongs to DistributorRole\r\n        packagedByManufacturer(_productupc)\r\n        verifyCaller(products[_productupc].manufacturerID) // check msg.sender is owner\r\n        {\r\n        \r\n        products[_productupc].productstate= State.ForSaleByManufacturer;\r\n        idToProof[_batchno].push(  products[_productupc]);\r\n        emit logNewItem(_productupc,0,address(0),\"null\",\"null\",'null','null',0,'null',_batchno);\r\n        emit ForSaleByManufacturer(_productupc);\r\n        }\r\n        function purchaseItemByBrand(uint _upc,uint _productupc) public \r\n       onlyBrand() // check msg.sender belongs to ConsumerRole\r\n        forSaleByManufacturer(_productupc)\r\n        {\r\n        products[_productupc].brandID = msg.sender;\r\n        items[_upc].brandID=msg.sender;\r\n        products[_productupc].ownerID = msg.sender;\r\n        products[_productupc].productstate = State.PurchasedByBrand;\r\n        itemsHistory[_productupc].RTC = block.number;\r\n        emit lognewPurchse(_productupc,block.timestamp,products[_productupc].brandID,0,address(0),0);\r\n        emit PurchasedByBrand(_productupc);\r\n        }\r\n        function shippedItemByDistributor(uint _productupc ,uint _shipmentAgent) public\r\n        onlyDistributor() // check msg.sender belongs to DistributorRole\r\n        purchasedByBrand(_productupc)\r\n        verifyCaller(products[_productupc].manufacturerID) // check msg.sender is distributorID\r\n        {\r\n            products[_productupc].ShipmnetAgent=_shipmentAgent;\r\n        products[_productupc].productstate = State.ShippedByManufacturer;\r\n        emit lognewPurchse(_productupc,block.timestamp,address(0),_shipmentAgent,address(0),0);\r\n        emit ShippedByManufacturer(_productupc);\r\n        }\r\n        \r\n        function fetchItemBufferOne(uint _upc) public view returns\r\n        (\r\n        uint    itemSKU,\r\n        uint    itemUPC,\r\n        address ownerID,\r\n        address originSupplierID,\r\n        string memory  originSupplierName,\r\n        string memory originSupplierLatitude,\r\n        string memory originSupplierLongitude,\r\n        uint price,\r\n        uint creationtime\r\n        )\r\n        {\r\n        // Assign values to the 8 parameters\r\n        Item memory item = items[_upc];\r\n    \r\n        return (item.sku,\r\n          item.upc,\r\n          item.ownerID,\r\n         item.originsupplierID,\r\n          item.originsupplierName,\r\n          item.originsupplierLongitude,\r\n          item.originsupplierLatitude,\r\n          item.productPrice,\r\n          item.creationTime\r\n        );\r\n  }\r\n      function fetchItemBufferTwo(uint _upc) public view returns\r\n        (\r\n        uint    itemSKU,\r\n        uint    itemUPC,\r\n        uint    productID,\r\n        State   itemState,\r\n        address manufacturerID,\r\n        address brandID,\r\n        address merchandizerid\r\n        )\r\n        {\r\n          // Assign values to the 9 parameters\r\n        Item memory item = items[_upc];\r\n    \r\n        return\r\n        (\r\n          item.sku,\r\n          item.upc,\r\n          item.productID,\r\n          item.itemState,\r\n          item.manufacturerID,\r\n          item.brandID,\r\n          item.merchandizerid\r\n        );\r\n\r\n  }\r\n   function fetchItemBufferThree(uint _productupc) public view returns\r\n        (\r\n        uint    itemSKU,\r\n        uint    itemUPC,\r\n        address manufacturerID,\r\n        address brandID,\r\n        address merchandizerid,\r\n        string memory treatement,\r\n        State   itemState,\r\n        uint[] memory empID,\r\n        uint[] memory machine_id,\r\n        uint time\r\n        )\r\n        {\r\n          // Assign values to the 9 parameters\r\n        Denim memory product = products[_productupc];\r\n    \r\n        return\r\n        (\r\n          product.productsku,\r\n          product.productupc,\r\n          product.manufacturerID,\r\n          product.brandID,\r\n          product.merchandizerid,\r\n          product.treatements,\r\n          product.productstate,\r\n          product.empID,\r\n          product.machine_id,\r\n          product.creationTime\r\n          \r\n    \r\n        );\r\n\r\n  }\r\n    function fetchitemHistory(uint _upc, uint _productupc) public view returns\r\n        (\r\n          uint blockSupplierToDistributor,\r\n          uint blockManufacturerToBrand,\r\n          uint blockpurchsetoprocess,\r\n          uint blockprocesstopacakge\r\n        )\r\n        {\r\n          // Assign value to the parameters\r\n          Txblocks memory txblock = itemsHistory[_upc];\r\n          return\r\n          (\r\n            txblock.FTD,\r\n            txblock.RTC,\r\n            itemsHistory[_productupc].PM,\r\n            itemsHistory[_productupc].PPA\r\n    \r\n          );\r\n    \r\n        }\r\n\r\n\r\n\r\n   } ",
  "sourcePath": "E:/nodeweb3/ethereuem/contracts/exmaple.sol",
  "compiler": {
    "name": "solc",
    "version": "0.5.16+commit.9c3226ce.Emscripten.clang"
  },
  "schemaVersion": "3.3.2",
  "updatedAt": "2021-03-03T02:35:16.407Z",
  "devdoc": {
    "methods": {}
  },
  "userdoc": {
    "methods": {}
  }
}